:020000040800F2
:1000000008090020E1010008F54A00082D45000814
:10001000F14A0008690D0008394C00080000000092
:10002000000000000000000000000000FD4A000881
:10003000891E000800000000F94A0008014B000872
:10004000FB010008FB010008FB010008FB010008A0
:10005000FB010008FB010008FB010008FB01000890
:10006000FB010008FB010008FB010008FB01000880
:10007000FB010008FB010008FB010008FB01000870
:10008000FB010008FB010008FB010008FB01000860
:10009000FB010008FB010008FB010008FB01000850
:1000A000FB010008FB010008FB010008FB01000840
:1000B000094B0008154B0008FB010008FB01000874
:1000C000FB010008FB010008FB010008FB01000820
:1000D000FB0100082D4C0008FB010008FB01000893
:1000E000FB010008FB010008FB01000800F002F81A
:1000F00000F066F814A696E8000CB244B344DA4562
:1001000001D100F05DF8BAE80F000FA696E83000C4
:10011000A5EB040504EB0607AAEB0704A7F101070A
:100120004FEA15154FEA3414A4F10104AC4201D38F
:1001300000F046F813F0010F18BFFB1A43F001035B
:1001400000F001F8DBE71847545A0000745A000029
:10015000103A24BF78C878C1FAD8520724BF30C8F3
:1001600030C144BF04680C60704700007047000055
:100170000023002400250026103A28BF78C1FBD8B0
:10018000520728BF30C148BF0B607047662905F091
:100190008B84642900F05880002070471FB500F060
:1001A00013FC04000020002105F028FB401C6060C7
:1001B0000020002105F00CFBE0601FBD10B510BD54
:1001C00000F04EFD1146FFF7E9FF04F037FD00F0A7
:1001D0007AFD03B4FFF7F2FF03BC00F0BDFD0000A1
:1001E0000948804709480047FEE7FEE7FEE7FEE7CB
:1001F000FEE7FEE7FEE7FEE7FEE7FEE70448054907
:10020000054A064B70470000054B0008ED0000084A
:100210000803002008090020080500200805002028
:100220000FB41CB5074B06AA7B446946009005989D
:1002300000F06DFB0020694600F07CFB1CBC5DF803
:1002400014FB0000090700002DE9F04106460024D8
:1002500010687529314616A510D0AFF3008000282C
:1002600002DA404213A507E031688A0701D512A5DA
:1002700002E0490704D511A5012401E0AFF3008095
:1002800000210A2206F1240709E0B0FBF2FCB0FBD2
:10029000F2F302FB1C00303078541846491C002849
:1002A000F3D123462A463046BDE8F04100F0C2B8FB
:1002B000000000002D0000002B00000020000000C6
:1002C0002DE9F0474FF0000A89460446C0F820A007
:1002D0002046E1688847002876D0252806D0D4E952
:1002E00001219047206A401C2062F1E7E168204626
:1002F00000258847C4F81CA006460027C4F818A0AB
:100300002A2E09D0304605F05BFA38B304EB870893
:10031000303EC8F8186019E059F8041B204604EB79
:1003200087029161E1688847012F064618D1E0698C
:10033000002820DA25F020051DE0D8F8180000EB91
:10034000800006EB40003038C8F818002046E1680D
:100350008847064605F034FA0028EED1012F0AD06E
:100360002E2E08D12046E16888477F1C0646022FC2
:1003700045F02005C4DBA069002803DA404245F0BF
:100380000105A061E80701D025F01005B6B1A6F17E
:100390004100192802D8203645F400654A46314606
:1003A000204625604D46FFF7F1FE58B1012806D0E2
:1003B000ED1D25F0070000F1080989E704E005F1CB
:1003C000040985E730468AE7206ABDE8F08770B502
:1003D000064600F02BF80468054630460A22002144
:1003E00000F0ADFA2C6070BD10B5431C02E010F8AF
:1003F000011B71B18107FAD14FF0013202C88C1A8A
:100400008C4314EAC211F9D0C01A0A0603D0C01EE8
:1004100010BDC01A10BD0A0401D0801E10BD090213
:10042000FCD0401E10BD70477047704700487047B1
:10043000100000202DE9F0470D46994692460446EB
:1004400000F124080168880604D5E06921F0100154
:10045000216000E00120A84201DD471B00E00027E9
:10046000A1697A1902EB0900081AA0612078C00678
:1004700002D42046AFF30080002608E0D4E9012131
:100480001AF806009047206A401C761C20624E45F0
:10049000F4DB2078C0060AD52046AFF3008006E0E2
:1004A000D4E9012130209047206A401C2062381E88
:1004B000A7F10107F4DC07E0D4E9012118F80500F1
:1004C0009047206A401C2062281EA5F10105F3DC3C
:1004D0002046AFF300802078000602D50220BDE858
:1004E000F0870120FBE72DE9FF4F0C461E464FF039
:1004F000FF378BB0D2E90001DDF860800A908A46B0
:10050000C1F30A5505B93D46002108464FF00000E9
:10051000BAF1000F00F4400005DA00EB80004FF460
:10052000400101EA50004FEA9059B9F1010F00DD96
:10053000B9460A9850EA4A000ED044F61050A5F287
:10054000FF3545432F14B8F1000F1ED07542291E08
:100550001EDDC9F100021CE0B8F1010F4FF00000F0
:1005600001D0302103E0F24305E02154401CB042A9
:10057000FBDB30460022002121540B99C1F8088092
:10058000C1E900200FB0BDE8F08FBD1B6D1CDEE798
:100590004A4600DA694206A800F0F0FA06AB93E892
:1005A000070003AB83E8070050460A9904F02CFDCE
:1005B0008DE80700A0F500501F3800900398002D2B
:1005C0000ADD42F21F014A460844002303A90390B2
:1005D000684604F095FF09E0A0F500504A461F3830
:1005E000002303A90390684604F09FFF8DE80700ED
:1005F0000004000C03D04FF0FF30410800E010462B
:10060000B8F1000F03D00022009215461EE0751EBF
:1006100005D400F0DDF9303262556D1EF9D5B346D0
:100620000122084302D000227F1C04E020783028F9
:1006300001D100227F1E002A099784D01DE0112DD0
:1006400007DA00F0C5F9303262556D1C50EA01023C
:10065000F5D1084302D00098C8B10EE00021681E11
:1006600005E0235C625C63542254401E491C8142B5
:10067000F7DBAB46A81B401E0990002004F80B00D6
:100680000B98099AC0F80880C0E9002B7AE7112678
:100690004FF0000857E72DE9F04F88460446D21D79
:1006A00022F0070191B0D1E90001CDE90A0105F07E
:1006B00073F802460B98C00F01D02D2007E0206888
:1006C000810701D52B2002E0202101EAC000032A86
:1006D000099001D0072A05DB03464146204600F079
:1006E000BDF90BE12078800601D5E06900E0062025
:1006F000B8F1650F814606D0B8F1660F18D0B8F191
:10070000670F70D131E00020B9F1110F009001DBCB
:10071000112301E009F101030AAA01A90CA8FFF7BE
:10072000E2FEDDE90C70002609F10105834647E091
:1007300001204B4600904FF000470AAA01A90CA8DF
:10074000FFF7D1FEDDE90DB00C995D46002610B92A
:1007500009F101000D18B9EB050003D4C0F1FF3613
:1007600009F10105A5EB09002BE0B9F1010F01DA50
:100770004FF001090020B9F1110F0090484601DD4A
:10078000112300E003460AAA01A90CA8FFF7ABFE5B
:10079000DDE90C704D4600268346207800070AD418
:1007A000AB4500DA5D4601A8012D04DD411911F8C1
:1007B000011C302907D04F4502DA17F1040F04DA83
:1007C000012082460FE06D1EEEE7002F02DCED1BDC
:1007D0003E4403E0781CA84200DD7D1CB81B00F1FC
:1007E000010A4FF000472078000703D4AA4501DB37
:1007F0004FF0FF3A0021B7F1004F0DF143088DF89B
:10080000431024D002202B23002F01DA7F422D2316
:100810000A21021EA0F1010000DC5FB197FBF1FC90
:1008200097FBF1F201FB1C7C17460CF1300C08F829
:1008300001CDEEE7A8F1010003702188090501D57B
:10084000452100E06521A0F1010800F8011C09988C
:100850000FA9A1EB0807FF1D00B10120411901EB11
:10086000EA70A1693844081A401EA0612078C006C9
:1008700002D42046AFF30080099828B1D4E90121C1
:100880009047206A401C20622078C00622D520466E
:10089000AFF300801EE0002E04DBB34502DD01A8AB
:1008A000805D00E03020D4E901219047206A401C9F
:1008B0002062761CAAF101005FEA000A0AD100F06A
:1008C00083F8C0680168405CD4E901219047206A40
:1008D000401C2062281EA5F10105DCDC07E0D4E9FC
:1008E000012118F8010B9047206A401C2062381E35
:1008F000A7F10107F3DC2046AFF30080032011B01D
:1009000041E6000001694A1C02610878704700B5A1
:100910008FB0CDE901310021059105497944CDE938
:10092000031011466846FFF7CBFC0FB000BD000076
:10093000E5FFFFFF0A6802F8010B0A6070472DE926
:10094000F04791460F4680460446002614F8015BA6
:100950002DB100F031F80068405DC007F6D12B2DB5
:1009600002D02D2D18D0641E4A463946204600F08C
:10097000B5F827B13968A14201D1C7F800804FF01E
:10098000020471050BD54042002803DDFFF74EFD40
:100990000460A007BDE8F08746F48066E4E700281D
:1009A000F8DAFFF743FD04606FF00040F2E7000063
:1009B000004870471000002010B500F005F8001D39
:1009C00010BD00BF394E00000048704730000020C5
:1009D00030B5B0F10A0271F100034FEA900E4EEA11
:1009E000817EB0EB0E0061EB91014FEA101E4EEAE2
:1009F000017E10EB0E0041EB11114FEA102E4EEA72
:100A0000016E10EB0E0041EB11214FEA104E4EEA41
:100A1000014E10EB0E0041EB1141401841F1000175
:100A20004FEAD00040EA41704FEAD1014FEA810419
:100A300044EA907410EB800544EB01046D1944EB1B
:100A40000404521BA3414FF0000348BF0A3200D5F3
:100A500030BD401C41F1000130BD00002DE9F041E6
:100A60001F46044603260168072A01F4006004DBE0
:100A700008B116A505E016A503E008B115A500E02C
:100A800015A521F010002060A069C01EA0610FB163
:100A9000401EA0612046AFF300804FB1D4E9012190
:100AA00038469047206A401C2062C01C206206E045
:100AB000206AFAE7D4E9012115F8010B9047761E68
:100AC000F8D22046AFF30080BDE8F0814E414E00E1
:100AD0006E616E00494E4600696E66002DE9F05F5A
:100AE000824615468B4600270AF10104B946007874
:100AF000302801D09DB113E014F8010B01277828AC
:100B000003D0582801D045B10AE00DB1102D07D10E
:100B1000002714F8010B102502E0082500E00A2543
:100B20000026B0460EE005FB080005FB06F1012794
:100B30001FFA80F801EB1046B6F5803F00D3B946A6
:100B400014F8010B294600F0B0F80028EBDABBF1ED
:100B5000000F05D00FB1641E00E05446CBF80040F2
:100B6000B9F1000F06D0FFF761FC02210160C81E39
:100B7000BDE8F09F48EA0640FAE700002DE9F0479B
:100B8000814616468AB0354878440DC88DE80D0078
:100B900032487844801C03AC0DC884E80D0041F64F
:100BA0009B300844372190FBF1F290FBF1F5A5F161
:100BB000800501FB12041B3C02D56442012000E0C9
:100BC0000020DFF898A080460027FA44AAF1BE0A68
:100BD0000EE0E0070AD03246684607EB47010123E2
:100BE0000AEB810104F0A1FC8DE8070064107F1C72
:100BF000002CEED1194F7F44AE3F19E0E80715D025
:100C000007EB04100DF1180A90E80E008AE80E00B8
:100C1000C068F04201D1981908903246012306A914
:100C200003A804F082FC03AB83E807006D10641C8A
:100C3000002DE3D14FF0010332466946B8F1000FB1
:100C400003A802D004F05CFC01E004F06EFCC9E9EA
:100C50000001C9F808200AB0BDE8F0879C4F0000E9
:100C60007546FFF7A5FEAE4605006946534620F0DF
:100C70000700854618B020B5FFF7C0FABDE8204050
:100C80004FF000064FF000074FF000084FF0000B48
:100C9000AC46ACE8C009ACE8C009ACE8C009ACE8B7
:100CA000C00921F007018D4670473A2800D230383C
:100CB00020F02002412A01D3A2F13700884201D35B
:100CC0004FF0FF30704710B50446AFF30080204668
:100CD000BDE81040FFF77DBA4FF0013C50F8042BFF
:100CE00051F8043B9A4221D1A2EB0C03934313EA3F
:100CF000CC1317D150F8042B51F8043B9A4215D16C
:100D0000A2EB0C03934313EACC130BD150F8042B42
:100D100051F8043B9A4209D1A2EB0C03934313EA26
:100D2000CC13DBD04FF00000704700BFD01A01BADF
:100D3000B1FA81F101F0180122FA01F0CB40DBB2E7
:100D4000C0B2C01AC1F120012CFA01F3D11A9143AB
:100D500011EAC311E6D1704701491820ABBEFEE786
:100D60002600020070470000FEE70000B0B582B028
:100D7000C37A40F2FC251946002B18BF0121CA0096
:100D8000C2F20005111D2C688DF8041021680024A2
:100D90004C6200BF4C6AE4087C2C0BD84C6AE40817
:100DA0007C2C07D84C6AE4087C2C03D84C6AB4F538
:100DB0007A7FEFD31824002B4FF01C0308BF1024B8
:100DC00008BF14238DF8052000228DF806304A62F2
:100DD0004A6AD2087C2A0BD84A6AD2087C2A07D8E9
:100DE0004A6AD2087C2A03D84A6AB2F57A7FEFD3DE
:100DF000036801798DF80740642401AA184604238A
:100E0000009401F08FFA286800210068416200BF59
:100E1000416AC9087C290BD8416AC9087C2907D8CE
:100E2000416AC9087C2903D8416AB1F57A7FEFD3BA
:100E3000416AC9087C290BD8416AC9087C2907D8AE
:100E4000416AC9087C2903D8416AB1F57A7FEFD39A
:100E5000416AC9087C290BD8416AC9087C2907D88E
:100E6000416AC9087C2903D8416AB1F57A7FEFD37A
:100E7000416AC9087C2919D8416AC9087C2915D852
:100E8000416AC9087C2911D8416AB1F57A7FEFD34C
:100E90000CE000BF416AC9087C290BD8416AC90827
:100EA0007C2907D8416AB1F57A7F03D2416AC90823
:100EB0007C29EFD902B0B0BD2DE9F04383B00446E0
:100EC000DDE90A6040F2FC25C2F200051F469046AB
:100ED0008946286002F020FA40F60640C4F80090E7
:100EE000C2F61400C4F807000820296884F80480BA
:100EF0006771A671E0720868002140F8241F00BFE6
:100F00000168C9087C290BD80168C9087C2907D861
:100F10000168C9087C2903D80168B1F57A7FEFD34D
:100F20000168C9087C290BD80168C9087C2907D841
:100F30000168C9087C2903D80168B1F57A7FEFD32D
:100F40000168C9087C290BD80168C9087C2907D821
:100F50000168C9087C2903D80168B1F57A7FEFD30D
:100F60000168C9087C290BD80168C9087C2907D801
:100F70000168C9087C2903D80168B1F57A7FEFD3ED
:100F80000168C9087C290BD80168C9087C2907D8E1
:100F90000168C9087C2903D80168B1F57A7FEFD3CD
:100FA0000168C9087C290BD80168C9087C2907D8C1
:100FB0000168C9087C2903D80168B1F57A7FEFD3AD
:100FC0000168C9087C290BD80168C9087C2907D8A1
:100FD0000168C9087C2903D80168B1F57A7FEFD38D
:100FE0000168C9087C290BD80168C9087C2907D881
:100FF0000168C9087C2903D80168B1F57A7FEFD36D
:101000000168C9087C290BD80168C9087C2907D860
:101010000168C9087C2903D80168B1F57A7FEFD34C
:101020000168C9087C290BD80168C9087C2907D840
:101030000168C9087C2903D80168B1F57A7FEFD32C
:101040000168C9087C290BD80168C9087C2907D820
:101050000168C9087C2903D80168B1F57A7FEFD30C
:101060000168C9087C290BD80168C9087C2907D800
:101070000168C9087C2903D80168B1F57A7FEFD3EC
:101080000168C9087C290BD80168C9087C2907D8E0
:101090000168C9087C2903D80168B1F57A7FEFD3CC
:1010A0000168C9087C290BD80168C9087C2907D8C0
:1010B0000168C9087C2903D80168B1F57A7FEFD3AC
:1010C0000168C9087C290BD80168C9087C2907D8A0
:1010D0000168C9087C2903D80168B1F57A7FEFD38C
:1010E0000168C9087C290BD80168C9087C2907D880
:1010F0000168C9087C2903D80168B1F57A7FEFD36C
:101100000168C9087C290BD80168C9087C2907D85F
:101110000168C9087C2903D80168B1F57A7FEFD34B
:101120000168C9087C290BD80168C9087C2907D83F
:101130000168C9087C2903D80168B1F57A7FEFD32B
:101140000168C9087C290BD80168C9087C2907D81F
:101150000168C9087C2903D80168B1F57A7FEFD30B
:101160000168C9087C290BD80168C9087C2907D8FF
:101170000168C9087C2903D80168B1F57A7FEFD3EB
:101180000168C9087C290BD80168C9087C2907D8DF
:101190000168C9087C2903D80168B1F57A7FEFD3CB
:1011A0000168C9087C290BD80168C9087C2907D8BF
:1011B0000168C9087C2903D80168B1F57A7FEFD3AB
:1011C0000168C9087C290BD80168C9087C2907D89F
:1011D0000168C9087C2903D80168B1F57A7FEFD38B
:1011E0000168C9087C290BD80168C9087C2907D87F
:1011F0000168C9087C2903D80168B1F57A7FEFD36B
:101200000168C9087C290BD80168C9087C2907D85E
:101210000168C9087C2903D80168B1F57A7FEFD34A
:101220000168C9087C290BD80168C9087C2907D83E
:101230000168C9087C2903D80168B1F57A7FEFD32A
:101240000168C9087C290BD80168C9087C2907D81E
:101250000168C9087C2903D80168B1F57A7FEFD30A
:101260000168C9087C290BD80168C9087C2907D8FE
:101270000168C9087C2903D80168B1F57A7FEFD3EA
:101280000168C9087C290BD80168C9087C2907D8DE
:101290000168C9087C2903D80168B1F57A7FEFD3CA
:1012A0000168C9087C290BD80168C9087C2907D8BE
:1012B0000168C9087C2903D80168B1F57A7FEFD3AA
:1012C0000168C9087C290BD80168C9087C2907D89E
:1012D0000168C9087C2903D80168B1F57A7FEFD38A
:1012E0000168C9087C290BD80168C9087C2907D87E
:1012F0000168C9087C2903D80168B1F57A7FEFD36A
:101300000168C9087C290BD80168C9087C2907D85D
:101310000168C9087C2903D80168B1F57A7FEFD349
:101320000168C9087C290BD80168C9087C2907D83D
:101330000168C9087C2903D80168B1F57A7FEFD329
:101340000168C9087C290BD80168C9087C2907D81D
:101350000168C9087C2903D80168B1F57A7FEFD309
:101360000168C9087C290BD80168C9087C2907D8FD
:101370000168C9087C2903D80168B1F57A7FEFD3E9
:101380000168C9087C290BD80168C9087C2907D8DD
:101390000168C9087C2903D80168B1F57A7FEFD3C9
:1013A0000168C9087C290BD80168C9087C2907D8BD
:1013B0000168C9087C2903D80168B1F57A7FEFD3A9
:1013C0000168C9087C290BD80168C9087C2907D89D
:1013D0000168C9087C2903D80168B1F57A7FEFD389
:1013E0000168C9087C290BD80168C9087C2907D87D
:1013F0000168C9087C2903D80168B1F57A7FEFD369
:101400000168C9087C290BD80168C9087C2907D85C
:101410000168C9087C2903D80168B1F57A7FEFD348
:101420000168C9087C290BD80168C9087C2907D83C
:101430000168C9087C2903D80168B1F57A7FEFD328
:101440000168C9087C290BD80168C9087C2907D81C
:101450000168C9087C2903D80168B1F57A7FEFD308
:101460000168C9087C290BD80168C9087C2907D8FC
:101470000168C9087C2903D80168B1F57A7FEFD3E8
:101480000168C9087C290BD80168C9087C2907D8DC
:101490000168C9087C2903D80168B1F57A7FEFD3C8
:1014A0000168C9087C290BD80168C9087C2907D8BC
:1014B0000168C9087C2903D80168B1F57A7FEFD3A8
:1014C0000168C9087C290BD80168C9087C2907D89C
:1014D0000168C9087C2903D80168B1F57A7FEFD388
:1014E0000168C9087C290BD80168C9087C2907D87C
:1014F0000168C9087C2903D80168B1F57A7FEFD368
:101500000168C9087C2919D80168C9087C2915D83F
:101510000168C9087C2911D80168B1F57A7FEFD339
:101520000CE000BF0168C9087C290BD80168C90814
:101530007C2907D80168B1F57A7F03D20168C90810
:101540007C29EFD93C218DF808100021016000BFF3
:101550000168C9087C290BD80168C9087C2907D80B
:101560000168C9087C2903D80168B1F57A7FEFD3F7
:1015700043F63841ADF80910002101600168C9083F
:101580007C290BD80168C9087C2907D80168C908DB
:101590007C2903D80168B1F57A7FEFD33827642618
:1015A00002AA4846414604238DF80B70009600F0CD
:1015B000B9FEE07A3C21002808BF302708BF34215B
:1015C00028688DF80810006800224262426AD2083A
:1015D0007C2A0BD8426AD2087C2A07D8426AD208F1
:1015E0007C2A03D8426AB2F57A7FEFD38DF80A10CD
:1015F00000218DF809704162416AC9087C290BD825
:10160000416AC9087C2907D8416AC9087C2903D8DE
:10161000416AB1F57A7FEFD3206821798DF80B709C
:10162000642702AA0423009700F07CFE28680022A9
:1016300001684A624A6AD2087C2A0BD84A6AD208F0
:101640007C2A07D84A6AD2087C2A03D84A6AB2F5AB
:101650007A7FEFD34A6AD2087C2A0BD84A6AD2082A
:101660007C2A07D84A6AD2087C2A03D84A6AB2F58B
:101670007A7FEFD34A6AD2087C2A0BD84A6AD2080A
:101680007C2A07D84A6AD2087C2A03D84A6AB2F56B
:101690007A7FEFD34A6AD2087C2A19D84A6AD208DC
:1016A0007C2A15D84A6AD2087C2A11D84A6AB2F52F
:1016B0007A7FEFD30CE000BF4A6AD2087C2A0BD8AD
:1016C0004A6AD2087C2A07D84A6AB2F57A7F03D2DE
:1016D0004A6AD2087C2AEFD9E37A38213C22002BCF
:1016E00008BF302108BF34228DF80820006800228E
:1016F000426200BF426AD2087C2A0BD8426AD208F2
:101700007C2A07D8426AD2087C2A03D8426AB2F5FA
:101710007A7FEFD32822002B4FF02C0308BF202222
:1017200008BF24238DF8091000218DF80A3041628A
:10173000416AC9087C290BD8416AC9087C2907D8A5
:10174000416AC9087C2903D8416AB1F57A7FEFD391
:10175000206821798DF80B20642702AA04230097C2
:1017600000F0E0FD2868002201684A624A6AD20857
:101770007C2A0BD84A6AD2087C2A07D84A6AD2083F
:101780007C2A03D84A6AB2F57A7FEFD34A6AD20834
:101790007C2A0BD84A6AD2087C2A07D84A6AD2081F
:1017A0007C2A03D84A6AB2F57A7FEFD34A6AD20814
:1017B0007C2A0BD84A6AD2087C2A07D84A6AD208FF
:1017C0007C2A03D84A6AB2F57A7FEFD34A6AD208F4
:1017D0007C2A19D84A6AD2087C2A15D84A6AD208C3
:1017E0007C2A11D84A6AB2F57A7FEFD30CE000BFA9
:1017F0004A6AD2087C2A0BD84A6AD2087C2A07D8BF
:101800004A6AB2F57A7F03D24A6AD2087C2AEFD9B3
:10181000E27A28212C23002A08BF202108BF242394
:101820008DF8083000680023436200BF436ADB087C
:101830007C2B0BD8436ADB087C2B07D8436ADB0878
:101840007C2B03D8436AB3F57A7FEFD3002A18BF05
:101850000122D2008DF80910111D8DF80A10002107
:10186000416200BF416AC9087C290BD8416AC90896
:101870007C2907D8416AC9087C2903D8416AB1F597
:101880007A7FEFD3206821798DF80B20642702AA94
:101890000423009700F046FD28680021006841629B
:1018A000416AC9087C290BD8416AC9087C2907D834
:1018B000416AC9087C2903D8416AB1F57A7FEFD320
:1018C000416AC9087C290BD8416AC9087C2907D814
:1018D000416AC9087C2903D8416AB1F57A7FEFD300
:1018E000416AC9087C290BD8416AC9087C2907D8F4
:1018F000416AC9087C2903D8416AB1F57A7FEFD3E0
:10190000416AC9087C2919D8416AC9087C2915D8B7
:10191000416AC9087C2911D8416AB1F57A7FEFD3B1
:101920000CE000BF416AC9087C290BD8416AC9088C
:101930007C2907D8416AB1F57A7F03D2416AC90888
:101940007C29EFD9E179E77A01F0F002002F18BF86
:101950000832131D8DF8083000234362436ADB0808
:101960007C2B0BD8436ADB087C2B07D8436ADB0847
:101970007C2B03D8436AB3F57A7FEFD30B0108338E
:10198000002F08BF0B01191D8DF80A1000218DF8DA
:1019900009204162416AC9087C290BD8416AC908FB
:1019A0007C2907D8416AC9087C2903D8416AB1F566
:1019B0007A7FEFD3206821798DF80B30642702AA53
:1019C0000423009700F0AEFC217AE37A01F0F002E4
:1019D000002B18BF0832101D2F688DF808003868DA
:1019E00000274762476AFF087C2F0BD8476AFF0829
:1019F0007C2F07D8476AFF087C2F03D8476AB7F5C2
:101A00007A7FEFD30F010837002B08BF0F01391D74
:101A10008DF80A1000218DF809204162416AC90839
:101A20007C290BD8416AC9087C2907D8416AC908B2
:101A30007C2903D8416AB1F57A7FEFD320682179F8
:101A40008DF80B70642702AA0423009700F06AFC4B
:101A5000617AE37A01F0F002002B18BF0832101D02
:101A60002F688DF80800386800274762476AFF082A
:101A70007C2F0BD8476AFF087C2F07D8476AFF08DE
:101A80007C2F03D8476AB7F57A7FEFD30F01083769
:101A9000002B08BF0F01391D8DF80A1000218DF8A9
:101AA00009204162416AC9087C290BD8416AC908EA
:101AB0007C2907D8416AC9087C2903D8416AB1F555
:101AC0007A7FEFD3206821798DF80B70642702AA02
:101AD0000423009700F026FCA17AE37A01F0F002DB
:101AE000002B18BF0832101D2F688DF808003868C9
:101AF00000274762476AFF087C2F0BD8476AFF0818
:101B00007C2F07D8476AFF087C2F03D8476AB7F5B0
:101B10007A7FEFD30F010837002B08BF0F01391D63
:101B20008DF80A1000218DF809204162416AC90828
:101B30007C290BD8416AC9087C2907D8416AC908A1
:101B40007C2903D8416AB1F57A7FEFD320682179E7
:101B50008DF80B70642702AA0423009700F0E2FBC3
:101B6000E37A1846002B18BF0120C100081D2A681F
:101B70008DF8080010680022426200BF426AD20855
:101B80007C2A0BD8426AD2087C2A07D8426AD2083B
:101B90007C2A03D8426AB2F57A7FEFD31822002B51
:101BA0004FF01C0308BF102208BF14238DF8091042
:101BB00000218DF80A304162416AC9087C290BD89E
:101BC000416AC9087C2907D8416AC9087C2903D819
:101BD000416AB1F57A7FEFD3206821798DF80B2027
:101BE000642702AA0423009700F09CFBE37A1846BE
:101BF000002B18BF0120C100081D2A688DF80800BD
:101C000010680022426200BF426AD2087C2A0BD8C8
:101C1000426AD2087C2A07D8426AD2087C2A03D8B2
:101C2000426AB2F57A7FEFD32822002B4FF02C03C3
:101C300008BF202208BF24238DF8091000218DF849
:101C40000A304162416AC9087C290BD8416AC90837
:101C50007C2907D8416AC9087C2903D8416AB1F5B3
:101C60007A7FEFD3206821798DF80B20642702AAB0
:101C70000423009700F056FB03B0BDE8F08300009A
:101C800080B582B0437990F806C08B4298BF591E48
:101C9000944598BFACF10102D2B2032A0AD8DFE81A
:101CA00002F00A03050700BF403104E0143102E0EE
:101CB000543100E0002190F80BC001F070026FF089
:101CC0007703BCF1000F08BF6FF07F0303EB020E38
:101CD00040F2FC22C2F2000212680EF104038DF8F9
:101CE0000430126800235362536ADB087C2B0BD844
:101CF000536ADB087C2B07D8536ADB087C2B03D89C
:101D0000536AB3F57A7FEFD30B010833BCF1000FB0
:101D100008BF0B01191D8DF8061000218DF805E094
:101D2000516200BF516AC9087C290BD8516AC908A1
:101D30007C2907D8516AC9087C2903D8516AB1F5B2
:101D40007A7FEFD3D0F800C001798DF807304FF0DB
:101D5000640E01AA60460423CDF800E000F0E2FA28
:101D600002B080BD2DE9F04782B00C460978002909
:101D700056D040F2FC280546C2F2000800274FF07A
:101D800064090DF1040A0EE043F001022868297984
:101D90008DF8072052460423CDF8009000F0C2FAD7
:101DA00014F8011FE1B3EA7A21F00F03002A18BFEB
:101DB0000833581DD8F800608DF804003068476279
:101DC000466AF6087C2E0BD8466AF6087C2E07D8A1
:101DD000466AF6087C2E03D8466AB6F57A7FEFD3BA
:101DE00043F001060B010833002A08BF0B01591DFF
:101DF0008DF805608DF80610476200BF416AC9087A
:101E00007C29C1D8416AC9087C29BDD8416AC90862
:101E10007C29B9D8416AB1F57A7FEFD3B4E700BF26
:101E200002B0BDE8F087000010B584B00446006839
:101E3000E11D03224FF47A7CCDE90012D02100226B
:101E40000123CDF808C000F05BFBE079217A03099B
:101E500003EB830300F00F0000EB4300207508093B
:101E6000627A00EB800001F00F0101EB4000E074AA
:101E7000100900EB800002F00F0101EB4000A0749C
:101E800004B010BD0160704770470000014690F833
:101E90002100022816D10868D1E90FC3026822F098
:101EA0000E020260026822F001020260012000FAC4
:101EB00003F2CCF8042081F821000020002281F8F0
:101EC00020207047042088630120002281F8202010
:101ED0007047000090F82110022923D1026840F2D7
:101EE000040C1168C4F2020C21F00E011160136899
:101EF0002F21C4F202018A4223F00103136015DD91
:101F00003023C4F202039A421CD04423C4F20203D9
:101F10009A421BD05823C4F202039A421CD14FF4B8
:101F2000803321E004218163012070470823C4F23B
:101F300002039A420ED01C23C4F202039A420BD130
:101F4000102311E04FF480730EE000BF4FF4805374
:101F50000AE000BF012307E00CF168014FF0807335
:101F60008A4208BF4FF480130121CCF8003080F87A
:101F70002110416B0022002980F8202004BF00209E
:101F8000704780B58847002080BD00002DE9F04FE4
:101F900082B00E68002E00F0FD8041F20042C4F2D3
:101FA0000102042340F2004E904208BF03234FF683
:101FB000FF7CC4F2010E009300240123C1F2100C37
:101FC0004FF0000A4FF000094BE000BF41F2000261
:101FD000C4F20102009F904208BF022704F00C03E4
:101FE0000F229A402BEA020207FA03F34FEA9A05FE
:101FF0001A4346F825204E6840F20C45F202DEF8FE
:10200000082054BF22EA080242EA0802C4F201058D
:10201000CEF808202A68B30254BF22EA080242EA36
:1020200008022A60B303DEF8042054BF22EA080243
:1020300042EA0802F303CEF80420DEF800204FF055
:10204000010354BF22EA080242EA0802CEF8002047
:102050000E680AF1010A36FA0AF204F1040400F0EB
:10206000998003FA0AFB16EA0B08F1D04E68664520
:1020700012DC122E56D8DFE806F0350B4D495555C7
:10208000555555555555555555555545510000BF54
:10209000D1F80C9046E000BF4FF6FF72C1F221026A
:1020A00096420FDC0022C1F2110296421AD00022A1
:1020B000C1F21202964215D00022C1F221029642CC
:1020C00010D02FE00022C1F2220296420AD0002254
:1020D000C1F23102964205D00022C1F2320296428C
:1020E00020D100BF8A684AB1012A14BFC0F814B0D9
:1020F000C0F810B04FF0080914E000BF4FF0040919
:1021000010E000BFCA6802F104090BE04FF00009BB
:1021100008E000BFCA6802F1080903E0CA6802F1DA
:102120000C0900BF02462646B8F5807F24BF043262
:10213000203E17680F25B54027EA050509FA06F67F
:1021400035431560CA79D2067FF582AF41F2180394
:10215000C4F202031A68AEF57E7642F001021A60FC
:102160001A6802F001020192019A2AF0030256F85D
:1021700002B040F60002C4F20102904208D040F6DC
:102180000042C4F2010290427FF420AF012725E70C
:10219000002723E702B0BDE8F08F00008068084008
:1021A00018BF012070470000002A08BF0904016120
:1021B0007047000040F20030C2F200000068704733
:1021C000002804BF01207047F0B581B0044690F8A4
:1021D0003D0028B9002084F83C00204600F038FB80
:1021E000242084F83D002068016821F0010101608D
:1021F000016841F400410160016821F4004101607F
:1022000000F0F0FC636848F2A16CC0F2010C40F6EB
:102210000011C0F23D0163453CBF48F28041C0F26D
:102220001E01884202D2012001B0F0BD4DF683614B
:10223000C4F21B31A0FB01122168970CD1F804E015
:102240004FF496762EF03F0545EA92454D60774370
:1022500048F638160D6AC0F24106A7FB067625F04F
:102260003F07634538BF960C721C3A430A62CA693D
:1022700048F2A0664CF6FF77C0F20106B34222EAAC
:1022800007020BD801385B00B0FBF3F001306FF3AD
:102290001F30042898BF04201BE000BFA768013846
:1022A00057B119277B43B0FBF3F001306FF31F30B8
:1022B00070B100F5804007E003EB4303B0FBF3F09F
:1022C00001306FF31F3018B100F5004001E000BF8E
:1022D00001201043C8610868D4E9072320F0C0003A
:1022E000104318430860886848F2FF3204F10C0775
:1022F00090438CCF18431043A6698860C86820F0CB
:10230000FF0038433043C860086840F001000860AF
:1023100000202021206484F83D10206384F83E00D2
:1023200001B0F0BD2DE9F04383B01E461746894643
:102330000446FFF73FFF94F83D10202924D10546BD
:10234000206800BF816989071AD5FFF733FF411B59
:1023500020681A29F6D381698907F3D50020202146
:10236000206384F83D1084F83E00216C41F0200188
:10237000216484F83C00022003B0BDE8F08300BF74
:1023800094F83C10012903D1022003B0BDE8F0838A
:10239000012184F83C100168C90703D1016841F0AC
:1023A00001010160016840F2020821F4006101604E
:1023B000212184F83D10102184F83E100021216471
:1023C00067626685618DC0F201082185A8F102115E
:1023D000E162E16A0A9E11F5803F18BF01291DD113
:1023E000016841F48071016020464FF00111002224
:1023F0003346009502F084F950B120680068C005AA
:1024000044BF4FF400702064012003B0BDE8F083A6
:102410002069B0F5804F07D1FE2015E00829DFD0F4
:10242000216B1229DCD0DFE7062000EAD9102168F1
:10243000F030086108F10601204632462B4602F0D2
:1024400045FA0028E0D1FF20216800EA0900086170
:102450002046414632462B4602F038FA0028D3D1B6
:1024600000200290206841690291806902900298E0
:1024700006E000BF204631462A4602F0E3F818BBCA
:10248000208D68B3204631462A4602F0D3FAD8B9E7
:10249000606A2168024612F8013B0B616262628D3C
:1024A000013A6285228D531E23854F697F07E1D54E
:1024B0001B04DFD0437802300B616062608D01380D
:1024C0006085901E2085D5E7206C04289CD120686B
:1024D000016841F400710160012003B0BDE8F083A0
:1024E0002068016841F400710160202084F83D00FB
:1024F000002084F83E0084F83C0003B0BDE8F0837F
:102500002DE9F04F85B004460020994616460F4647
:102510000490FFF74FFE94F83D10202927D105467F
:10252000206800BF816989071CD5FFF743FE411B66
:1025300020681A29F6D381698907F3D50020202164
:10254000206384F83D1084F83E00206C04F13C0ABE
:1025500040F020002064022000218AF8001005B01D
:10256000BDE8F08FA2461AF83C1F012904D10220D1
:1025700005B0BDE8F08F00BF01228AF80020036893
:10258000DDE90F180E9ADB0703D1036843F001035E
:102590000360036823F400630360222084F83D0095
:1025A000402084F83E000020206462626185608DD6
:1025B000394620850020CFF6FF70E0622046324683
:1025C0004B46CDE9008501F0B3FF18B1012005B0FD
:1025D000BDE8F08F208D022826D001280ED00028DB
:1025E00038D10020039020684169039181690391EB
:1025F0000399016841F40071016037E020680168C7
:1026000021F480610160EFF3108072B60020039026
:10261000206841690391816903910399016841F43C
:102620000071016062B621E02068016841F4006138
:102630000160EFF3108072B60020039020684169BA
:102640000391816903910399016821F4806101601C
:1026500062B60BE02068016841F4806101600021EE
:10266000039141690391806903900398208D0028AC
:1026700000F0CE80042740F208094BF2895BC0F2DB
:102680000107C2F20009C1F2F84B23260EE000BF99
:1026900010690870606A218D01306062481E2085D3
:1026A000618D01396185010400F0B28080B2032898
:1026B0000CD802282CD001284AD1204641462A466F
:1026C00002F070F9002800F09F807FE72046414625
:1026D0002A4602F067F900287FF478AF2068616A23
:1026E00000690870606A2268411C208D61620138AF
:1026F0002085638D013B638553695B07D3D580B229
:102700000328C5D1106820F480601060C0E700BFC6
:102710002046394600224346009501F0F1FF00288B
:102720007FF454AFEFF3108072B62068616A0268DC
:1027300042F40072026000690870606A218D013005
:102740006062481E2085608D0138608562B65BE05E
:102750002046394600224346009501F0D1FF00286B
:102760007FF434AF2068016821F480610160EFF3E9
:10277000108072B62068616A00690870606A218DF5
:102780000130013960622185618D01396185D9F897
:102790000010C908A1FB0B12110A7143049104999E
:1027A00001390491049900293ED021684A695207F1
:1027B0001AD40499013904910499A9B321684A698A
:1027C000520711D4049901390491049961B3216825
:1027D0004A69520708D4049901390491049919B33C
:1027E00021684A695207DAD50A6842F400720A6021
:1027F00009690170606A218D01306062481E208580
:10280000608D0138608562B62068616A006940E7C2
:10281000202084F83D00002084F83E0000218AF842
:10282000001005B0BDE8F08F00202021206384F85F
:102830003D1084F83E00206C40F02000206462B619
:10284000012000218AF8001005B0BDE8F08F0000DB
:1028500010B586B0016845F20040C4F20000814224
:102860004FF00001CDE90411CDE9021102D006B00C
:1028700010BD00BF41F21804C4F20204216800F543
:10288000384041F008012160216801F00801019100
:102890000199C0210291122103910321059102A9FE
:1028A000FFF774FB606840F400106060606800F43B
:1028B00000100190019806B010BD000040F2000029
:1028C00040F20031C2F20000C2F2000100780A6852
:1028D000104408607047000080B542F20000C4F266
:1028E0000200016841F010010160032000F08CF843
:1028F0000F2000F005F800F027F8002080BD000050
:1029000070B540F20006C2F2000640F208013278CB
:10291000C2F200014FF47A730968B3FBF2F2044685
:10292000B1FBF2F1084600F085FB0F2C4FF00105DA
:1029300008D838B94FF0FF3021460022002500F0BA
:1029400037F87460284670BD82B041F21800C4F2B6
:1029500002000168022241F001010160016801F0FA
:10296000010101910199416841F080514160406845
:1029700000F08050009000980420C4F2010001682B
:1029800062F31A61016002B070470000002848BF7E
:10299000704700F01F01012202FA01F11C2202EA35
:1029A000D0004EF20012CEF20002815070470000BB
:1029B00010B54EF60C5CCEF2000CDCF80030C3F320
:1029C000022E8EF00704042C28BF0424BEF103035A
:1029D0004FF0FF3E0EFA04F438BF0023A1439940A4
:1029E0000EFA03F39A43114300F00F0200F1604323
:1029F0000901043A03F564436244002848BF02F128
:102A00000C03197010BD00004EF60C51CEF20001FF
:102A10000A684FF6FF031A4060F30A2242F0806012
:102A200040F0FD7008607047002804BF0120704727
:102A30002DE9F04381B042F20008C4F202080446D6
:102A4000D8F800000D4600F0070088420CD2D8F8F4
:102A5000000020F007002843C8F80000D8F8000064
:102A600000F00700A8426CD1206841F204098107F8
:102A7000C4F2020917D5410705D5D9F8001041F471
:102A8000E061C9F80010010705D5D9F8001041F43C
:102A90006051C9F80010D9F80010A26821F0F001C7
:102AA0001143C9F80010C00742D1D8F8000000F067
:102AB0000700A8420CD9D8F8000020F007002843EE
:102AC000C8F80000D8F8000000F00700A84238D18C
:102AD0002068410707D5D9F80010E26821F4E061C9
:102AE0001143C9F80010000708D5D9F80000216982
:102AF00020F4605040EAC100C9F80000D9F8002075
:102B000002F00C00082841F20020C0F27A004DD1FA
:102B100045F65A33C2F38341C0F60003595CD20331
:102B200038D440F60010C0F23D0048433EE000BFFC
:102B3000606859F8041C022808D0012826D18903AE
:102B400006D4012001B0BDE8F08300BF8901F8D5AB
:102B5000D9F8001021F003010843C9F80000FFF77D
:102B600029FB064641F28837D9F80000616800F079
:102B70000C00B0EB810F98D0FFF71CFB801BB84214
:102B8000F2D9032001B0BDE8F08300BF8907D8D592
:102B9000DEE700BFD9F8002045F65833C2F34042C3
:102BA000C0F600039A5C4843B0FBF2F0D9F800107D
:102BB00045F64032C1F30311C0F60002515C40F209
:102BC000080220FA01F140F20400C2F2000000689D
:102BD000C2F200021160FFF793FE002001B0BDE8D1
:102BE000F083000040F2080041F20401C2F200004C
:102BF000C4F202010068096845F65032C1F30221AF
:102C0000C0F60002515CC8407047000040F2080066
:102C100041F20401C2F20000C4F202010068096836
:102C200045F65032C1F3C221C0F60002515CC840E3
:102C300070470000002804BF012070472DE9F041D3
:102C400082B00446007841F20006C007C4F20206D2
:102C50000CD0706800F00C00042840F081803068CF
:102C6000800303D56068002800F046812078800743
:102C70001BD5706810F00C0F09D0706800F00C00C4
:102C8000082840F087807068C00300F183803068B6
:102C9000800703D52069012840F02E8130686169E2
:102CA00020F0F80040EAC10030602078000713D41B
:102CB000207840072CD4E569002D00F01881706859
:102CC00000F00C00082840F0A780012D40F004819E
:102CD000012002B0BDE8F081A069002800F08480E6
:102CE0000020C4F242200121C0F88014FFF762FAEC
:102CF000054600BF706A800700F1B280FFF75AFAFC
:102D0000401B0228F6D9032002B0BDE8F08100BFC5
:102D1000F0695FEAC00808D4F06940F08050F061C3
:102D2000F06900F080500090009847F20007C4F26C
:102D300000073868C00549D4386840F480703860AE
:102D4000FFF738FA054600BF3868C0053ED4FFF7E4
:102D500031FA401B6428F7D9032002B0BDE8F081A6
:102D6000706800F00C00082803D17068C0033FF5BC
:102D700076AF61683068002900F00C81B1F5A02FB2
:102D800000F00081B1F5803F40F01A8140F48030BE
:102D90001CE100BF2069002840F20000C4F242207C
:102DA00000F0888001210160FFF704FA054600BFAA
:102DB000306880073FF572AFFFF7FCF9401B02282F
:102DC000F6D9032002B0BDE8F08100BFE168306AA7
:102DD000002900F09D80052900F09280012940F033
:102DE000AF8040F00100B1E00020C4F24220002199
:102DF000C0F88014FFF7DEF9054600BF706A80074F
:102E00007FF556AFFFF7D6F9401B0228F6D903200D
:102E100002B0BDE8F08100BF0027C4F242270020C5
:102E20003866FFF7C7F9022D05460DD130688001DD
:102E300040F1DE80FFF7BEF9401B02284FF003008F
:102E4000F4D902B0BDE8F081306880014FD5FFF7BA
:102E5000B1F9401B02284FF00300F5D9F1E700BF9C
:102E600040F20800C2F20000006844F6D351C1F2FB
:102E70006201A0FB0101480A019000BF00BF019858
:102E8000411E002801913FF413AF00BF0198411E7D
:102E9000002801913FF40CAF00BF0198411E0028AB
:102EA00001913FF405AF00BF0198411E0028019138
:102EB000E4D1FDE600210160FFF77CF9054600BF83
:102EC000306880077FF5F1AEFFF774F9401B0228E8
:102ED0004FF00300F4D9B4E77068216A00F480323F
:102EE0008A4209D1616A00F47010884204D100203E
:102EF00002B0BDE8F08100BF012002B0BDE8F08162
:102F000040F004003062306A40F001001EE000BF73
:102F100020F001003062306A20F004003062FFF7D8
:102F200049F9054641F28837306A800720D5FFF716
:102F300041F9401BB8424FF00300F5D981E700BFCB
:102F400020F001003062306A20F004003062FFF7A8
:102F500031F9054641F28837306A800708D4FFF717
:102F600029F9401BB842F7D9032002B0BDE8F0812F
:102F7000B8F1000F3FF59FAEF06920F08050F0618E
:102F800099E600BF40F480203060306840F4803023
:102F90001CE000BF20F480303060306820F48020D6
:102FA0003060FFF707F90546306880037FF55EAEB5
:102FB000FFF700F9401B64284FF00300F4D940E705
:102FC00020F480303060306820F480203060FFF7DB
:102FD000F1F80546306880033FF548AEFFF7EAF8A0
:102FE000401B6428F6D9032002B0BDE8F08100BF81
:102FF000206AB0F5803F05D17168A26821F40031E4
:10300000114371607168626A21F4741111430843BD
:10301000706001203866FFF7CDF804463068800103
:103020003FF565AFFFF7C6F8001B02284FF003001D
:10303000F4D906E7411E0020B0EB116F1CBF012040
:1030400070474EF21002CEF2000251604EF623514C
:10305000CEF20001F0230B700721906011607047E1
:10306000704700007047000090F83C20012A4FF0A4
:10307000020236D010B580F83D200268D2F804E094
:10308000D2F808C00C682EF07003234340F2FF749E
:10309000C4F20004A24253600ADCB2F1804F13D0A4
:1030A00040F20043C4F200039A420DD011E000BF89
:1030B00042F60043C4F201039A4205D040F60003F1
:1030C000C4F200039A4204D149682CF080031943EA
:1030D00091600121002280F83D1080F83C20BDE87D
:1030E0001040104670470000002804BF01207047C0
:1030F00010B590F83D1031B9002180F83C1004461D
:1031000000F070F82046022180F83D10016840F27E
:10311000FF740B68C4F2000442F6004CA142C4F2F2
:10312000010C15DCB1F1804F1AD040F20042C4F21C
:103130000002914214D0A14218DCB1F1804F1DD0A1
:1031400040F20042C4F20002914217D01AE000BFE0
:10315000614505D040F60002C4F200029142EAD176
:10316000826823F070031343A142E6DD614505D078
:1031700040F60002C4F20002914203D1026923F436
:1031800040731343846923F08002D0F804E0C368DD
:10319000224361450A60CB62C1F828E002D142694E
:1031A000CCF8302001224A610B69DB0703D00B69A0
:1031B00023F001030B6180F8462080F83E2080F860
:1031C0003F2080F8402080F8412080F8422080F89D
:1031D000432080F8442080F8452080F83D200020DE
:1031E00010BD000080B586B0006840F2FF71C4F2E7
:1031F000000188424FF00001CDE90411CDE9021130
:1032000046DCB0F1804F5FD040F20041C4F20001D3
:1032100088427ED141F21C00C4F20200016841F0F4
:1032200002010160016801F002010191019950F869
:10323000041C41F0080140F8041C50F8040C02A9D9
:1032400000F0080001900198202002900020CDE9B4
:10325000030040F60040C4F20100FEF797FE042090
:10326000C4F2010001684FF2FF32CFF6FF021140B5
:1032700041F0E06141F4006101601D200021002265
:10328000FFF796FB1D20FFF781FB06B080BD00BF56
:1032900040F60001C4F2000188422DD042F6004100
:1032A000C4F20101884234D141F21C00C4F2020090
:1032B00050F8041C41F4006140F8041C50F8040C60
:1032C00000F4006023E000BF41F21C00C4F20200E1
:1032D0000168002241F00101016000680A2100F04C
:1032E0000100019001981C20FFF762FB1C2006B032
:1032F000BDE88040FFF74ABB41F21C00C4F2020067
:10330000016841F004010160006800F004000190D0
:10331000019806B080BD000090F83D1001291CBF47
:1033200001207047022180F83D10006840F2FF71D3
:10333000C4F20001884209DCB0F1804F12D040F2A3
:103340000041C4F2000188420CD012E042F6004174
:10335000C4F20101884205D040F60001C4F2000128
:10336000884206D1816801F00701062904BF0020C8
:103370007047016841F001010160002070470000C2
:1033800090F83D1001291CBF01207047022180F8F0
:103390003D10006840F2FF72C168C4F20002904222
:1033A00041F00101C16009DCB0F1804F12D040F260
:1033B0000041C4F2000188420CD012E042F6004104
:1033C000C4F20101884205D040F60001C4F20001B8
:1033D000884206D1816801F00701062904BF002058
:1033E0007047016841F00101016000207047000052
:1033F00090F83C20012A4FF002026CD080B580F892
:103400003D20D0F800C04FF67772DCF8083023EA90
:103410000202CCF808200B684F2B29DC1F2B45DD5E
:10342000202B46D0302B44D0402B40F0AF80D1F839
:1034300004E0C968DCF82030DCF8202022F001022A
:10344000CCF82020DCF8182022F0F00242EA01112A
:1034500023F00A0242EA0E02CCF81810CCF8202021
:10346000DCF8081041F0470121F0300128E000BFEE
:103470006F2B33DDB3F5005F74D0B3F5805F21D0DF
:10348000702B40F08380D1E901E3C968DCF80820A3
:1034900043EA0E0322F47F4243EA01211143CCF8B0
:1034A0000810DCF8081041F0770109E00BB1102B8F
:1034B0006CD1DCF8081021F07001194341F00701CC
:1034C000CCF808100022012180F83D10002180F87E
:1034D0003C10BDE880401046704700BF502B21D003
:1034E000602B53D1D1F804E0C968DCF82030DCF857
:1034F000202022F01002CCF82020DCF8182022F442
:10350000704242EA013123F0A00242EA0E12CCF8E6
:103510001810CCF82020DCF8081041F0670121F0E9
:103520001001CDE7D1F804E0C968DCF82030DCF800
:10353000202022F00102CCF82020DCF8182022F014
:10354000F00242EA011123F00A0242EA0E02CCF82C
:103550001810CCF82020DCF8081041F0570121F0B9
:103560002001ADE7D1E901E3C968DCF8082043EAAE
:103570000E0322F47F4243EA01211143CCF80810E4
:10358000DCF8081041F480419AE700BF01229AE775
:1035900040F22422C2F2000201681268914218BF70
:1035A0007047B0B540F27005C2F2000529780129D4
:1035B00012D041BB0421044600F0B0FB2168286111
:1035C000086A20F0A0000862086A40F02000086243
:1035D0000120287017E000BF0421044600F09EFB84
:1035E000216868610A6A22F0A0020A620A6A0A6215
:1035F000296900228842A0EB01002A709CBF4FF687
:10360000FF710844A86140F22420C2F200000421A6
:10361000BDE8B04000F042B990F83C30012B04BF47
:10362000022070474FEAB202032A00F28580F0B50B
:10363000DFE802F0025C203E0368D1E900C5D1F862
:103640000CE01C6A1A6A40F2FF7722F001021A624B
:103650001A4652F8186FC4F20007BB4272DCB3F18D
:10366000804F7BD040F20047C4F20007BB4275D0C8
:1036700090E000BF0768D1E900C5D1E902313C6A9A
:103680003A6A61F3071522F480723A623A4652F8B8
:103690001C6F26F0F30645EA06014FEA5C0666F366
:1036A000492411603C62116821F00C01116066E050
:1036B0000368D1E900E6D1E902C11C6A1A6A360240
:1036C00022F480521A621A4652F81C5F4FF2FF072A
:1036D000BE4325F4734561F30F364FEA5E0746EAB1
:1036E000050167F34D3411601C621EE00368D1E9E7
:1036F00000E6D1E902C11C6A1A6A360222F0100201
:103700001A621A4652F8185F4FF2FF07BE4325F4BB
:10371000734561F30F3624F0A0040EF00A0746EA61
:10372000050144EA071711601F6211684FEA0C2374
:1037300021F44061116022E00121002280F83C2048
:103740000846704742F60047C4F20107BB4205D065
:1037500040F60007C4F20007BB421BD126F0030667
:10376000354324F00A070CF00A066EF307153744B8
:103770009D611F629F6927F00C079F618B6811682C
:10378000194311600021BDE8F040002280F83C2080
:103790000846704746F00105E3E70000002804BF33
:1037A0000120704710B590F83D1031B9002180F824
:1037B0003C10044600F070F82046022180F83D10CD
:1037C000016840F2FF740B68C4F2000442F6004C3A
:1037D000A142C4F2010C15DCB1F1804F1AD040F2C5
:1037E0000042C4F20002914214D0A14218DCB1F1AF
:1037F000804F1DD040F20042C4F20002914217D027
:103800001AE000BF614505D040F60002C4F2000294
:103810009142EAD1826823F070031343A142E6DDAE
:10382000614505D040F60002C4F20002914203D186
:10383000026923F440731343846923F08002D0F8B3
:1038400004E0C368224361450A60CB62C1F828E006
:1038500002D14269CCF8302001224A610B69DB07B2
:1038600003D00B6923F001030B6180F8462080F838
:103870003E2080F83F2080F8402080F8412080F8EA
:10388000422080F8432080F8442080F8452080F8CA
:103890003D20002010BD00007047000031B3042916
:1038A00008D0082919BF4FF0450C41234FF0440CB4
:1038B000402302E04FF0430C3F23C25C10F80C3071
:1038C000012A4FF0010208BF012B5FD10222082913
:1038D00022D0042950D180F83F2080F843204FEABD
:1038E000B103032B4FF0010220D94FE090F83E20A6
:1038F00090F84230012A4FF0010208BF012B45D158
:10390000022280F83E2080F842204FEAB103032BC8
:103910004FF001020AD939E080F8402080F84420B5
:103920004FEAB103032B4FF001022FD845F66C3C50
:103930000068C0F6000C5CF823C0C36801F01F01EA
:1039400043EA0C03C360036A02FA01F123EA0102AD
:103950000262026A114340F2FF72C4F20002904216
:10396000016215DCB0F1804F1ED040F20041C4F27C
:103970000001884218D01EE080F8412080F84520E0
:103980004FEAB103032B4FF00102CFD91046704725
:1039900042F60041C4F20101884205D040F6000120
:1039A000C4F20001884206D1816801F007010629AE
:1039B00004BF00207047016841F001010160002050
:1039C0007047000070B504460068C5680669B10715
:1039D00016D515F0020113D06FF00201016101212B
:1039E00021778069800703D02046FFF7D1FD05E0ED
:1039F000204600F08FF8204600F08EF80020207757
:103A0000700719D515F0040016D020686FF0040176
:103A1000016102212177806910F4407F04D02046A3
:103A2000FFF7B6FD06E000BF204600F073F8204621
:103A300000F072F800202077300717D515F0080045
:103A400014D020686FF00801016104212177C0695A
:103A5000800703D02046FFF79BFD05E0204600F0DD
:103A600059F8204600F058F800202077F00619D5C4
:103A700015F0100016D020686FF0100101610821C8
:103A80002177C06910F4407F04D02046FFF780FD05
:103A900006E000BF204600F03DF8204600F03CF86C
:103AA00000202077F00718BF15F0010002D1300682
:103AB00009D412E020686FF001010161204600F096
:103AC0002DF8300609D515F0800006D020686FF07B
:103AD000800101612046FFF7C3FA700609D515F091
:103AE000400006D020686FF040010161204600F0E0
:103AF00021F9B00658BF70BD15F0200008D021682C
:103B00006FF0200220460A61BDE87040FFF7AABAB4
:103B100070BD00007047000070470000F0B581B034
:103B200040F27006C2F200063089411C88B21D289E
:103B3000318139D840F60044C4F2010420461021F6
:103B40000122FEF731FB40F29410C2F2000000683F
:103B500000214162416A31B9416A21B9416A11B912
:103B6000416A0029F6D0204610210022FEF71CFBF6
:103B7000B06901F088FE46F6007248F6C573C0F2DF
:103B80008142C3F6A17301F091FE0023C3F6E073F6
:103B9000002201F08BFE01F047FE7070F06006F12C
:103BA0002800FEF741F98BE01E280FD03B280DD8E6
:103BB00040F60044C4F2010420464FF48071FEF741
:103BC000EDFA012814D100201AE000BF40F20C01E8
:103BD000C2F2000109883D2801F13C0128BF814261
:103BE00046D881423EBF00203081307168E000BF7E
:103BF00020464FF40071FEF7D1FA012805D10120CB
:103C0000F07006F11C00FDF7B1F8F26806F1440708
:103C100030A13846FCF704FB40F2D205F268C2F24C
:103C200000052FA12846FCF7FBFA96F83A2096F8F3
:103C30003B3096F83C401E352EA128460094FCF7F8
:103C4000EFFAF078012827D0D0BB06F11C052846F2
:103C500000210022FEF714F82DA12846FEF782F875
:103C6000284600210122FEF70BF82846394625E0B8
:103C70003079411C317118BB40F2D204C2F2000409
:103C80002046FCF7B1FB82B240F2B420C2F2000041
:103C9000214600F029FC13E006F11C042046002117
:103CA0000022FDF7EDFF17A12046FEF75BF8204646
:103CB00000210122FDF7E4FF20462946FEF752F8D5
:103CC00040F2DC10C2F2000001B0BDE8F040FFF7A6
:103CD00057BB00BF4B6320646F3A2564202000006F
:103CE0006B686F616E6720636163683A25640D0AD3
:103CF0000000000054494D453A25643A25643A25B0
:103D00006420200043484520444F2032000000003A
:103D100043484520444F2031000000004FEAB101E4
:103D2000032984BF00207047006800EB8100406BCE
:103D300070470000704700007047000070470000A7
:103D4000B0B582B001680A68CC684B6902F02F05F3
:103D5000202D04F0200505D125B102B0BDE8B0400A
:103D600000F0E4BE5FEA027C1EBF03F0010E04F423
:103D7000907313EB0E0341D1036BD50618D5012BBD
:103D800016D114F0100313D0002201920A68019298
:103D90004A680192019A496949064BD4818DC28DC6
:103DA000C38D002B18BF914240F0F48102B0B0BD2A
:103DB00013062DD514F080032AD090F84120212A33
:103DC000F4D18268B2F5805F03D10269002A00F065
:103DD0006782026A531C036212784A60C28C013AFD
:103DE0001304C284E2D1C86820F08000C860C868AB
:103DF00040F04000C86002B0B0BD00BFD30718BF9C
:103E000014F4807340F0D080530700F1D380D8E0E1
:103E10005206CBD514F04002C8D0CA6822F0400246
:103E2000CA60202180F8411002B0BDE8B04000F027
:103E30007BBB00BFC16B0A68526893B2002BB5D040
:103E4000858DAB42B2D2C2858969202900F0A1805C
:103E5000016851E8031F026821F4807142E80313EE
:103E6000DBB1016851E8031F026821F4807142E868
:103E7000031393B1016851E8031F026821F48071B4
:103E800042E803134BB1016851E8031F026821F4B3
:103E9000807142E80313002BDAD1016851E8051F55
:103EA000026821F0010142E80513C3B3016851E83B
:103EB000051F026821F0010142E805137BB3016888
:103EC00051E8051F026821F0010142E8051333B3F0
:103ED000016851E8051F026821F0010142E805135D
:103EE000002BDAD11BE000BF016851E8051F026812
:103EF00021F0400142E80513DBB1016851E8051FDC
:103F0000026821F0400142E8051393B1016851E8CD
:103F1000051F026821F0400142E805134BB101681A
:103F200051E8051F026821F0400142E80513002B0B
:103F3000DAD1202180F8421000210163016851E8A4
:103F4000031F026821F0100142E80313DBB101688E
:103F500051E8031F026821F0100142E8031393B1F6
:103F6000016851E8031F026821F0100142E80313C1
:103F70004BB1016851E8031F026821F0100142E8CB
:103F80000313002BDAD1C16B04460846FDF77EFF10
:103F9000204602214163818DC28D891A89B202B007
:103FA000BDE8B040FFF7C8BE436C43F00103436473
:103FB000530706D5BEF1000F03D0436C43F0020354
:103FC0004364930706D5BEF1000F03D0436C43F062
:103FD00004034364BCF1000F06D55EEA050303D079
:103FE000436C43F008034364436C002B3FF4DEAEA4
:103FF000920605D525B1044600F098FD21682046BB
:104000004969426C01F0400102F00802891800F091
:10401000B98000BF016851E8031F026821F4907164
:1040200042E80313BBB3016851E8031F026821F49F
:10403000907142E8031373B3016851E8031F0268EB
:1040400021F4907142E803132BB3016851E8031F78
:10405000026821F4907142E80313002BDAD11AE0D0
:10406000016851E8051F026821F0010142E80513CB
:10407000DBB1016851E8051F026821F0010142E847
:10408000051393B1016851E8051F026821F0010191
:1040900042E805134BB1016851E8051F026821F0A1
:1040A000010142E80513002BDAD1016B012924D16B
:1040B000016851E8031F026821F0100142E8031370
:1040C000DBB1016851E8031F026821F0100142E8EA
:1040D000031393B1016851E8031F026821F0100136
:1040E00042E803134BB1016851E8031F026821F055
:1040F000100142E80313002BDAD1202180F842108E
:104100000021016301684969490640F1C3800168E3
:1041100051E8051F026821F0400142E80513DBB1B8
:10412000016851E8051F026821F0400142E80513CB
:1041300093B1016851E8051F026821F0400142E88F
:1041400005134BB1016851E8051F026821F04001D9
:1041500042E80513002BDAD1C16B002900F09A80E8
:1041600044F62132C0F60002044608464A63FDF7D1
:10417000B1FE00283FF41AAEE06B416B02B0BDE81F
:10418000B04008470446FFF7D9FD0020606402B044
:10419000B0BD00BF891A00BF026852E8032F036850
:1041A00022F4907243E80325BDB3026852E8032F5E
:1041B000036822F4907243E8032575B3026852E85D
:1041C000032F036822F4907243E803252DB302689D
:1041D00052E8032F036822F4907243E80325002D70
:1041E000DAD11AE0026852E8052F036822F00102D2
:1041F00043E80525DDB1026852E8052F036822F087
:10420000010243E8052595B1026852E8052F0368CD
:1042100022F0010243E805254DB1026852E8052F5E
:10422000036822F0010243E80525002DDAD120229F
:1042300080F8422000220263026852E8032F0368DC
:1042400022F0100243E80325DDB1026852E8032F93
:10425000036822F0100243E8032595B1026852E892
:10426000032F036822F0100243E803254DB10268D2
:1042700052E8032F036822F0100243E80325002DC3
:10428000DAD1022289B2426302B0BDE8B040FFF742
:1042900053BD00BF02B0BDE8B040FFF74FBD00BF47
:1042A000026A32F8023B6FF35F234B60026295E5CE
:1042B000002804BF0120704710B5044690F8410063
:1042C00028B9002084F84000204600F063F824203C
:1042D00084F841002068D4E90212C36823F4005333
:1042E000C360036923F440531A430261D4E90423F1
:1042F0001143C268194341F20C639A431143C160F0
:104300004169A26921F44071114343F60002C4F2ED
:1043100001029042416103D0FEF764FC02E000BF5D
:10432000FEF774FCD4E90023192148439900B0FB3F
:10433000F1F048F21F5CC5F2EB1CA0FB0C314FF60C
:104340009C734909C0F6FF7301FB0300322303EBA2
:104350000010A0FB0C03F02000EA531000EB01104A
:10436000C3F34311084490601069202120F4904069
:104370001061506920F02A005061D06840F400506C
:10438000D0600020606484F8411084F842106063BB
:1043900010BD000070B586B040F60004C4F2010400
:1043A000006804F54051002688420596CDE9036671
:1043B000029601D006B070BD41F21800C4F20200AE
:1043C000016802AD41F480410160016801F480415F
:1043D00001910199016841F00401016000682946DA
:1043E00000F00400019001984FF400700290022048
:1043F0000390032005902046FDF7C8FD4FF4806030
:10440000CDE90206204629460496FDF7BFFD25208A
:1044100000210022FEF7CCFA2520FEF7B7FA06B0FD
:1044200070BD000090F84230202B07D100294FF0DA
:10443000010318BF002A05D1184670470223184609
:10444000704700BF00230363816222218285C285F9
:10445000436480F842100169006819B1C16841F4F1
:104460008071C160416941F001014161C16841F061
:104470002001C16018467047006843F60001C4F28D
:104480000101884218BF7047B0B540F27004C2F213
:104490000004A07840F2D205C2F20005291891F874
:1044A0003C104B2910D105F13D00FBF790FF0104B2
:1044B00040F20C0108BF0120C2F200010880012077
:1044C0000023E08001E000BF431CD8B2284400F183
:1044D0003C0140F2B420C2F200000122A370BDE80A
:1044E000B040FFF79FBF000090F84130202B07D16C
:1044F00000294FF0010318BF002A05D11846704764
:1045000002231846704700BF0162002321218284E4
:10451000C284436480F841100068C16841F08001A2
:10452000C16018467047000070470000FEE70000B9
:104530002DE9F04782B0044600689A460B9D0A9E1A
:104540000368914643F48062026002680F4642F4B9
:104550008071016020464FF0011100223346009522
:1045600000F0CEF850B120680068C00544BF4FF499
:1045700000702064032002B0BDE8F08740F202081A
:104580002068C0F2010807F0FE0707612046414697
:1045900032462B4600F09AF920B1012002B0BDE866
:1045A000F08700BF0020019020682A4641690191F0
:1045B0008069314601900198204600F03BFAB0B97D
:1045C0002068BAF1010F09D04FEA19210161204694
:1045D00031462A4600F02EFA48B920685FFA89F180
:1045E0000161204631462A4600F024FA60B1206C71
:1045F0000428D2D12068016841F4007101600120D3
:1046000002B0BDE8F08700BF206800220168334691
:1046100041F48071016020464FF00111009500F0D7
:104620006FF800289FD147F0010C276820464146CB
:1046300032462B46C7F810C002B0BDE8F04700F084
:1046400045B9000070B50368044653F8140F4007DD
:1046500011D40E46481C29D086BB00BF18684005FF
:1046600027D4FDF7A7FD236853F8140F400737D56B
:1046700018684007F2D5002070BD00BF18684007D9
:10468000F9D41868400514D418684007F3D41868A2
:1046900040050ED418684007EDD41868400508D4CA
:1046A000186840074FF0000048BF70BD186840050B
:1046B000E4D56FF480601860042012E0154603E032
:1046C00053F8140F4007D6D418684005F1D4FDF70D
:1046D00071FD401B2368B042F2D958694007EFD4FE
:1046E000202000212022216384F83D2084F83E1000
:1046F000226C10432064012084F83C1070BD00003F
:104700002DE9F041054600681E46144601F47F027B
:1047100001338FB242D0DDF81880B2F5803F40F00F
:10472000878040693840C01BB0FA80F04009A04241
:1047300040F0C8804EB924E040693840C01BB0FA50
:1047400080F04009A04240F0BD80FDF733FDA0EBB2
:1047500008012868B142EFD941693940C91BB1FA53
:1047600081F14909A142E7D19BE000BF406938408F
:10477000C01BB0FA80F04009A0424FF0000040F0AA
:10478000A280FDF717FD286841693940C91BB1FABD
:1047900081F14909A142E9D183E000BFB2F5803F30
:1047A00024D100BF41693940C91BB1FA81F14909DF
:1047B000A14240F0878041693940C91BB1FA81F1BB
:1047C0004909A14240F07E8041693940C91BB1FAD4
:1047D00081F14909A14275D141693940C91BB1FA3A
:1047E00081F14909A142DDD06CE000BF8169394007
:1047F000C91BB1FA81F14909A14263D181693940EC
:10480000C91BB1FA81F14909A1425BD181693940E3
:10481000C91BB1FA81F14909A14253D181693940DB
:10482000C91BB1FA81F14909A142DFD04AE000BFBA
:1048300080693840C01BB0FA80F04009A04241D1E5
:1048400046B923E080693840C01BB0FA80F04009C7
:10485000A04237D1FDF7AEFCA0EB08012868B142B9
:10486000F0D981693940C91BB1FA81F14909A142E6
:10487000E8D116E080693840C01BB0FA80F04009EA
:10488000A0424FF0000018BFBDE8F081FDF792FC98
:10489000286881693940C91BB1FA81F14909A142EF
:1048A000E8D100202021286385F83D1085F83E00DE
:1048B000296C41F02001296485F83C000120BDE805
:1048C000F08100BF0020BDE8F0810000F0B581B0AC
:1048D000044600681D4643698FB203EA0701B942E6
:1048E00002D1002001B0F0BD4169164601323CD032
:1048F000490512D47EB300BFFDF75CFC411B206864
:10490000B14203D941693940B9422BD1416939409B
:10491000B942E6D041694905EED5016841F400711C
:1049200001606FF480614161042000212022216335
:1049300084F83D2084F83E10226C1043206484F8F3
:104940003C10012001B0F0BD41693940B942C8D0E6
:1049500041694905E1D4FDF72DFC206841693940E2
:10496000B942F1D02020E0E741694905D5D4416939
:104970003940B942B5D041694905CED44169394081
:10498000B942AED041694905C7D441693940B942FD
:10499000A7D041694905C0D441693940B942E3D142
:1049A0009FE7000070B504460068154650F8143FB4
:1049B0005A063DD40E4629B926E000BF50F8141F10
:1049C000490635D40168C90621D4FDF7F3FB411B24
:1049D0002068B142F2D941694906EFD40020202174
:1049E000206384F83D1084F83E00206C40F02000E5
:1049F00018E000BFFDF7DEFB206850F8141F4906E1
:104A0000ECD50168490613D40168C906F2D56FF0E8
:104A10001001016000202021206384F83D1084F8FB
:104A20003E00206C2064002084F83C00012070BD12
:104A3000002070BD70B50368044653F8140F0006DB
:104A400011D40E46481C29D086BB00BF186840050B
:104A500027D4FDF7AFFB236853F8140F000637D5B2
:104A600018680006F2D5002070BD00BF1868000667
:104A7000F9D41868400514D418680006F3D41868EF
:104A800040050ED418680006EDD41868400508D417
:104A9000186800064FF0000048BF70BD1868400558
:104AA000E4D56FF480601860042012E0154603E03E
:104AB00053F8140F0006D6D418684005F1D4FDF75A
:104AC00079FB401B2368B042F2D958690006EFD445
:104AD000202000212022216384F83D2084F83E100C
:104AE000226C10432064012084F83C1070BD00004B
:104AF000FEE70000FEE7000070470000704700007E
:104B0000FDF7DCBE7047000040F2DC10C2F200008E
:104B1000FEF758BF40F22420C2F20000FEF752BF59
:104B2000406A0021C185C184FFF708B981B090F8BF
:104B30004210222921D183680246B3F5805F09D152
:104B400052F8281F52F8183C002B63D003685B68AA
:104B50000AE000BF52F8281F13B90369002BF5D0F3
:104B600003685B6803F07F030B701168013111600B
:104B7000C18D01390A04C18502D001B0704700BF60
:104B80000168CA6822F02002CA60CA6822F48072F2
:104B9000CA604A6922F001024A61202180F842106D
:104BA00000214163026B012A3CD10163016851E895
:104BB000031F026821F0100142E80313DBB1016812
:104BC00051E8031F026821F0100142E8031393B17A
:104BD000016851E8031F026821F0100142E8031345
:104BE0004BB1016851E8031F026821F0100142E84F
:104BF0000313002BDAD101680A68D20606D5002219
:104C000000920A680092496800910099818D01B074
:104C1000FFF792B8026852686FF35F2221F8022B07
:104C20008162A5E701B0FFF727BC000040F2B42085
:104C3000C2F20000FFF784B8FEE7000094B0FDF771
:104C40004BFE00240120CDE90D44CDE90B44089032
:104C50000C904FF4E0104FF480310225119008A819
:104C6000CDE90914CDE90F51FDF7E4FF20B1EFF3D1
:104C7000108072B6FEE700BF0F20CDE902054FF4A9
:104C80008060CDE9050402A802210494FDF7CCFE62
:104C900020B1EFF3108072B6FEE700BF002641F2AC
:104CA0001800CDE90A66CDE90866C4F20200016881
:104CB00040F6004441F0200101600168C4F20104A3
:104CC00001F02001029102990168002241F00401E3
:104CD00001600168102501F0040102910299016848
:104CE00041F0080101600068102100F00800029006
:104CF00002982046FDF758FA01200895CDE90906EB
:104D0000022008AD0B9020462946FDF73FF94FF4ED
:104D10004070CDE90806204629460A96FDF736F987
:104D200040F24010A4F53841C2F2000048F2A062FF
:104D30004FF48043C0F2010280E84600C0E90363FB
:104D4000C0E90566C0E90766FDF73AFA20B1EFF35E
:104D5000108072B6FEE700BF40F2B42004F5305177
:104D6000C2F200000C234FF4E13280E84600C0E9B3
:104D70000366C0E90536C661FFF79AFA20B1EFF382
:104D8000108072B6FEE700BF40F29410002104F5D7
:104D90000052C2F2000047234FF6FF760B91CDE997
:104DA0000911CDE90211C0E90023C0E90216C0E9EA
:104DB00004118161FEF798F920B1EFF3108072B60B
:104DC000FEE700BF4FF48050089040F29410C2F20A
:104DD000000008A9FEF70CFB20B1EFF3108072B6BB
:104DE000FEE700BF40F29410C2F2000002A9FEF7F5
:104DF0003BF928B1EFF3108072B600BFFEE700BFA9
:104E000040F26C200021A4F58232C2F20000472358
:104E10004FF6FF760B91CDE90911CDE90211C0E9FA
:104E20000023C0E9021601618161FEF75DF928B136
:104E3000EFF3108072B600BFFEE700BF4FF4805062
:104E4000089040F26C20C2F2000008A9FEF7D0FAE8
:104E500020B1EFF3108072B6FEE700BF40F26C2580
:104E6000C2F2000502A92846FEF7FEF820B1EFF3D2
:104E7000108072B6FEE700BF40F224200021A4F5A6
:104E80008432C2F2000047234FF6FF760B91CDE942
:104E90000911CDE91211C0E90023C0E90216016130
:104EA0008161FEF721F918B1EFF3108072B6FEE7C9
:104EB0004FF48050089040F22420C2F2000008A96C
:104EC000FEF796FA20B1EFF3108072B6FEE700BF4E
:104ED00040F22420C2F20000FEF760FC20B1EFF3A4
:104EE000108072B6FEE700BF40F22420C2F200003C
:104EF00012A9FEF7B9F818B1EFF3108072B6FEE709
:104F000000240120CDE9030440F22420C2F2000075
:104F100002A9042202940594FEF77EFB20B1EFF370
:104F2000108072B6FEE700BF40F2DC10C2F2000053
:104F30004FF0804109230B94CDE90944CDE90244A7
:104F400041F61F4280E81600C0E903348461FEF791
:104F5000CBF818B1EFF3108072B6FEE74FF4805033
:104F6000089040F2DC10C2F2000008A9FEF740FAF7
:104F700020B1EFF3108072B6FEE700BF40F2DC1004
:104F8000C2F2000002A9FEF76FF818B1EFF310802B
:104F900072B6FEE740F22420C2F200000421FEF7C0
:104FA0007DFC40F29410C2F20000FEF7B5F940F229
:104FB000DC10C2F20000FEF7E3F940F2700740F2A5
:104FC0004014C2F20007C2F20004022607F11C00DE
:104FD00021464E221023CDE90065FBF76DFF07F156
:104FE00028002146FCF74EFFB87840F2D201C2F209
:104FF0000001084400F13C0140F2B420C2F200007C
:105000000122FFF70FFAFEE75FEA400C08BF91F0BC
:10501000000F4FEA8C234FEAC12243EA51514FEA75
:105020001C5018BF00F5F0404FEA300018BF41F0A7
:1050300000415FEA6C5C00F02980BCF1FF3F08BFD3
:1050400040F080407047130C06BF12044FF0100C64
:105050004FF0000C130E04BF12020CF1080C130FDA
:1050600004BF12010CF1040C930F04BF92000CF169
:10507000020CD30F04BF52000CF1010C11464FF08B
:105080000002A0F11F00A0EB0C00704711F0004FD0
:1050900008BF704731F000413FF4D5AF0B0C06BF9D
:1050A00009044FF0100C4FF0000C0B0E04BF090266
:1050B0000CF1080C0B0F04BF09010CF1040C8B0F51
:1050C00004BF89000CF1020CCB0F04BF49000CF1A6
:1050D000010CCCF1200322FA03F341EA030102FAA6
:1050E0000CF2A0EB0C0000F10100704723F07F47A9
:1050F00020F07F4C80EA030000F00040ACEB070397
:1051000003F57C5303F1FF032DE9804909B44FEA0D
:10511000144324EA03484FEA154B25EA0B4E0FF2DD
:10512000042606EB13273E7803FB0667C7F5000746
:1051300007FB06F64FEAD64606F102064FEA543759
:1051400007FB066CCCF1005C4FEA1C472CEA074CCD
:105150000CFB06F507FB06F404EB15464FEA961622
:1051600049085FEA320234BF00204FF000404FEAA6
:10517000D13706FB07FC4FEA1C4C0CFB0BF7D21B8C
:1051800003FB0CF761EB07010CFB0EF7B0EB0740DC
:1051900072EB17420CFB08F734BFA2EB0742B2EBED
:1051A000074261EB17414FEA0C444FEA910706FBB7
:1051B00007FC4FEA1C4C0CFB0BF7B0EBC74072EB43
:1051C000573203FB0CF734BFA2EBC742B2EBC74226
:1051D00061EB57310CFB0EF7B0EBC70072EB577267
:1051E0000CFB08F734BFA2EBC702B2EBC70261EBBE
:1051F00057714FEA816141EA92114FEA826242EAB5
:1052000090124FEA806004EBCC04039F4FEAD13741
:1052100006FB07FC4FEA1C4C0CFB0BF7D21B03FBF5
:105220000CF761EB07010CFB0EF7B0EB074072EBDC
:1052300017420CFB08F734BFA2EB0742B2EB074260
:1052400061EB17414FEA8C5504EB9C244FEA910720
:1052500006FB07FC4FEA1C4C0CFB0BF7B0EBC740FE
:1052600072EB573203FB0CF734BFA2EBC742B2EB31
:10527000C74261EB57310CFB0EF7B0EBC70072EB86
:1052800057720CFB08F734BFA2EBC702B2EBC702A0
:1052900061EB57714FEA816141EA92114FEA8262F4
:1052A00042EA90124FEA806015EB4C2544F100046D
:1052B0004FEAD13706FB07FC4FEA1C4C0CFB0BF7FF
:1052C000D21B03FB0CF761EB07010CFB0EF7B0EBF5
:1052D000074072EB17420CFB08F734BFA2EB074202
:1052E000B2EB074261EB17414FEA813141EA92414B
:1052F0004FEA823242EA90424FEA80304FEA0C761F
:1053000015EB1C1544F1000448EA03434EEA0B4830
:105310004FF0000EB2EB080C71EB030724BF62469E
:1053200039464EEB0E0E4FF0000B0018524149412A
:105330004BEB0B0BB2EB080C71EB03077BF1000B93
:1053400024BF624639464EEB0E0E4FF0000B00189C
:10535000524149414BEB0B0BB2EB080C71EB0307CD
:105360007BF1000B24BF624639464EEB0E0E51EA2C
:10537000020718BF46F0010616EB0E7655F1000243
:1053800054F1000103D5BDE88901BDE80088BDE8FE
:105390008901BDE80048B619524141EB0101A3F172
:1053A0000103704780807F7E7D7C7B7A7978777679
:1053B00076757473727171706F6E6E6D6C6C6B6AF2
:1053C0006A69686867666665646463636261616090
:1053D000605F5F5E5E5D5D5C5C5B5B5A5A5959580D
:1053E0005857575656555555545453535252525177
:1053F000515050504F4F4F4E4E4D4D4D4C4C4C4BCD
:105400004B4B4A4A4A494949484848474747474613
:10541000464645454544444444434343434242424F
:10542000424141419C46002B30D477002BD04FEABB
:1054300037071CB503B44FF010004FF01001BAF15C
:10544000000F06D0BCF1000FDCBF40F0080040F0B8
:1054500008014FF000000FBCBDE810400BF1010B3C
:10546000BBF1010F08BF5FEA170722BF12F101026B
:1054700011F101014FF0004143F1000300F0004041
:1054800043EA00007047F9D35708D0E746EA0646DA
:105490004FEA164613F1400F1FDD13F1200FDFBF57
:1054A00016430A46002120335B42BED0C3F12007D9
:1054B00046EA06464FEA164602FA07F746EA0706A4
:1054C00022FA03F2C3F1200701FA07F742EA0702C2
:1054D00021FA03F14FF00003A7E746EA020646EA85
:1054E00006464FEA164646EA0106BCBF46EA0646AD
:1054F000360C4FF000034FF000024FF0000194E72C
:105500002DE9804C70B49A46934691E8380007C85C
:1055100031EA400C48BF34EA430C03D5FFF7E6FDFF
:10552000FFF780FFF0BCBDE8008C2DE9804C70B423
:105530009A46934691E8380007C810F0804F08BF9C
:1055400013F0804F03D100F005F8FFF76BFFF0BCBC
:10555000BDE8008C20F07F4723F07F4C80EA0300F9
:1055600000F0004007EB0C03A3F57C53A3F1FE030E
:1055700092F0000F00F0B38095F0000F00F07780FC
:105580002DE901494FEA114021EA00484FEA14464B
:1055900024EA064700FB06FC08FB06F607FB08F8B2
:1055A00018EB06484CEB164C00FB07F718EB0748C6
:1055B0004CEB17404FEA124B22EA0B4E4FEA1546CE
:1055C00025EA06470BFB06FC0EFB06F607FB0EFE64
:1055D0001EEB064E4CEB164C0BFB07F71EEB074E73
:1055E0004CEB174B18EB0B0840F1000018EB0E0BBF
:1055F00058EB000840F100008F1A4FF000014FF007
:1056000000063CBFC943661B14BFB5EB040C002168
:105610003CBFC943F61B4FEA174427EA04454FEA4B
:105620001C472CEA074C04FB076205FB07F70CFB41
:1056300005F616EB074642EB174204FB0CFC16EB93
:105640000C4642EB1C421BEB060658EB02024141A2
:105650004EEA8E0E46EA9E0601D5BDE80189B619CE
:10566000524141EB0101A3F10103BDE801894FEA79
:10567000144524EA05464FEA114721EA074C05FB89
:1056800007F406FB07F70CFB06F111EB074144EBAF
:10569000174405FB0CFC11EB0C4144EB1C444FEA96
:1056A000124722EA074C05FB07F206FB07F70CFB43
:1056B00006F616EB074642EB174205FB0CFC16EB11
:1056C0000C4642EB1C456A1854F1000148BF704774
:1056D000B619524141EB0101A3F10103704795F066
:1056E000000F37D04FEA114221EA02464FEA144731
:1056F00024EA074C02FB07F106FB07F70CFB06F454
:1057000014EB074441EB174102FB0CFC14EB0C4477
:1057100041EB1C414FEA154725EA074C02FB07F510
:1057200006FB07F70CFB06F616EB074645EB17459D
:1057300002FB0CFC16EB0C4645EB1C42121951F116
:10574000000148BF7047B619524141EB0101A3F176
:10575000010370474FEA144524EA05464FEA114712
:1057600021EA074C05FB07F106FB07F70CFB06F2E5
:1057700012EB074241EB174105FB0CFC12EB0C420C
:1057800051EB1C414FF0000648BF7047921841EBA7
:105790000101A3F101037047490050EAC12018BF7D
:1057A00004204A0D18BF40F0010040F2FF72B2EB36
:1057B000515F08BF40F00200012808BF0520704774
:1057C00030380A2801D201207047002070470000BD
:1057D00010B500290AD00878002807D00548784479
:1057E000FBF77AFA002801D0002010BD0248784467
:1057F00010BD0000DE030000D603000010B5002934
:105800000AD00878002807D005487844FBF764FAE6
:10581000002801D0002010BD0248784410BD0000CF
:10582000CE030000C60300004FEA41034FEA535382
:10583000A3F58063D3F11E03C8BFD3F1210C0CDDA7
:105840004FF0004242EAC12242EA505232FA03FCCF
:105850008CEAE17CACEBE1707047102BC4BF0020F8
:10586000704703F5787CBCF1FF3F04D06FF0004235
:1058700082EA2100704770B500F0C2F84992248096
:1058800000207047F2E7B0FA80F310FA03F10AD073
:10589000C3F11D0303F580634FEA03524FEA415001
:1058A00002EBD12170474FF00000704770B5DFF870
:1058B00048C11CEA111E1EBF1CEA13159EEA0C0FFC
:1058C00095EA0C0F00F06F8081EA03044EEAD47E63
:1058D000AE4421EA4C1123EA4C1341F4801143F405
:1058E0008013AEF17F7EA1FB024CA0FB036536194D
:1058F00055EB0C05A1FB034C4CF10003A0FB021C73
:1059000016EB0C06654153F10003094218BF46F03F
:10591000010613F4007F0BD14FEA03314FEA053043
:1059200041EA155140EA165034036FF003020AE0D1
:105930004FEAC3214FEAC52041EA555140EA56508B
:10594000F4026FF0020202EB2E4201EB025585EAEF
:10595000CE710AD05FEA440C18BF24F0004450F125
:10596000000041F1000120EAD47040F2FE7C624563
:1059700000D270BDA84214BF4FF080444FF04044A5
:10598000002E08BF0024BEF1806FA8BFA1F1C04166
:10599000BDE8704080F2828001F1C04101F0004119
:1059A0004FF0000070470CEA13159EEA0C0F18BF69
:1059B00095EA0C0F06D081EA030E4FF000000EF0BE
:1059C000004170BD00F01CF88900013E00F007B8EE
:1059D00000F009B84FEA430C5FEA5C5C08D081EA4A
:1059E000030100F05BB84FEA410C5FEA5C5CF6D162
:1059F00002494FF0000070470000FF070000F87FE9
:105A00000EF1020E2EF0030E5EF8046B364205D442
:105A1000012A43EB030515F5001F12D8012841EBBD
:105A2000010C1CF5001F0CD80ED14FEAD17C0CEBF9
:105A30004C0C0CF1020C15F5001F08BF4CEBD37C8D
:105A400004E04FF0080C01E04FEAD37C0CEB4C056E
:105A500026FA05F606F00706B6F1040C06D20EEBA0
:105A6000860CBDE870404CF0010C6047DFE80CF09C
:105A7000090B02024FF00041A1F500214FF0000098
:105A800070BD19461046012851EB010418BFD4F52A
:105A9000001484BF002001F0004170BD0808A0F58B
:105AA00000114FEA31017047FAF7F5BD02400000DE
:105AB000000000A00000000005400000000000C839
:105AC000000000000C4000000000409C00000000AE
:105AD000194000000020BCBE00000000344000005F
