:020000040800F2
:10000000B8080020E10100089D4900085544000897
:1000100099490008690D0008D14A00080000000055
:10002000000000000000000000000000A5490008DA
:10003000C51E000800000000A1490008A9490008E9
:10004000FB010008FB010008FB010008FB010008A0
:10005000FB010008FB010008FB010008FB01000890
:10006000FB010008FB010008FB010008FB01000880
:10007000FB010008FB010008FB010008FB01000870
:10008000FB010008FB010008FB010008FB01000860
:10009000FB010008FB010008FB010008FB01000850
:1000A000FB010008FB010008FB010008FB01000840
:1000B000FB010008B1490008FB010008FB01000832
:1000C000FB010008FB010008FB010008FB01000820
:1000D000FB010008C54A0008FB010008FB010008FD
:1000E000FB010008FB010008FB01000800F002F81A
:1000F00000F066F814A696E8000CB244B344DA4562
:1001000001D100F05DF8BAE80F000FA696E83000C4
:10011000A5EB040504EB0607AAEB0704A7F101070A
:100120004FEA15154FEA3414A4F10104AC4201D38F
:1001300000F046F813F0010F18BFFB1A43F001035B
:1001400000F001F8DBE71847145A0000345A0000A9
:10015000103A24BF78C878C1FAD8520724BF30C8F3
:1001600030C144BF04680C60704700007047000055
:100170000023002400250026103A28BF78C1FBD8B0
:10018000520728BF30C148BF0B607047662905F091
:100190007384642900F05880002070471FB500F078
:1001A00013FC04000020002105F010FB401C6060DF
:1001B0000020002105F0F4FAE0601FBD10B510BD6D
:1001C00000F04EFD1146FFF7E9FF04F083FC00F05C
:1001D0007AFD03B4FFF7F2FF03BC00F0BDFD0000A1
:1001E0000948804709480047FEE7FEE7FEE7FEE7CB
:1001F000FEE7FEE7FEE7FEE7FEE7FEE70448054907
:10020000054A064B70470000AD490008ED000008A4
:10021000B8020020B8080020B8040020B80400206C
:100220000FB41CB5074B06AA7B446946009005989D
:1002300000F06DFB0020694600F07CFB1CBC5DF803
:1002400014FB0000090700002DE9F04106460024D8
:1002500010687529314616A510D0AFF3008000282C
:1002600002DA404213A507E031688A0701D512A5DA
:1002700002E0490704D511A5012401E0AFF3008095
:1002800000210A2206F1240709E0B0FBF2FCB0FBD2
:10029000F2F302FB1C00303078541846491C002849
:1002A000F3D123462A463046BDE8F04100F0C2B8FB
:1002B000000000002D0000002B00000020000000C6
:1002C0002DE9F0474FF0000A89460446C0F820A007
:1002D0002046E1688847002876D0252806D0D4E952
:1002E00001219047206A401C2062F1E7E168204626
:1002F00000258847C4F81CA006460027C4F818A0AB
:100300002A2E09D0304605F043FA38B304EB8708AB
:10031000303EC8F8186019E059F8041B204604EB79
:1003200087029161E1688847012F064618D1E0698C
:10033000002820DA25F020051DE0D8F8180000EB91
:10034000800006EB40003038C8F818002046E1680D
:100350008847064605F01CFA0028EED1012F0AD086
:100360002E2E08D12046E16888477F1C0646022FC2
:1003700045F02005C4DBA069002803DA404245F0BF
:100380000105A061E80701D025F01005B6B1A6F17E
:100390004100192802D8203645F400654A46314606
:1003A000204625604D46FFF7F1FE58B1012806D0E2
:1003B000ED1D25F0070000F1080989E704E005F1CB
:1003C000040985E730468AE7206ABDE8F08770B502
:1003D000064600F02BF80468054630460A22002144
:1003E00000F0ADFA2C6070BD10B5431C02E010F8AF
:1003F000011B71B18107FAD14FF0013202C88C1A8A
:100400008C4314EAC211F9D0C01A0A0603D0C01EE8
:1004100010BDC01A10BD0A0401D0801E10BD090213
:10042000FCD0401E10BD70477047704700487047B1
:10043000100000202DE9F0470D46994692460446EB
:1004400000F124080168880604D5E06921F0100154
:10045000216000E00120A84201DD471B00E00027E9
:10046000A1697A1902EB0900081AA0612078C00678
:1004700002D42046AFF30080002608E0D4E9012131
:100480001AF806009047206A401C761C20624E45F0
:10049000F4DB2078C0060AD52046AFF3008006E0E2
:1004A000D4E9012130209047206A401C2062381E88
:1004B000A7F10107F4DC07E0D4E9012118F80500F1
:1004C0009047206A401C2062281EA5F10105F3DC3C
:1004D0002046AFF300802078000602D50220BDE858
:1004E000F0870120FBE72DE9FF4F0C461E464FF039
:1004F000FF378BB0D2E90001DDF860800A908A46B0
:10050000C1F30A5505B93D46002108464FF00000E9
:10051000BAF1000F00F4400005DA00EB80004FF460
:10052000400101EA50004FEA9059B9F1010F00DD96
:10053000B9460A9850EA4A000ED044F61050A5F287
:10054000FF3545432F14B8F1000F1ED07542291E08
:100550001EDDC9F100021CE0B8F1010F4FF00000F0
:1005600001D0302103E0F24305E02154401CB042A9
:10057000FBDB30460022002121540B99C1F8088092
:10058000C1E900200FB0BDE8F08FBD1B6D1CDEE798
:100590004A4600DA694206A800F0F0FA06AB93E892
:1005A000070003AB83E8070050460A9904F014FDE6
:1005B0008DE80700A0F500501F3800900398002D2B
:1005C0000ADD42F21F014A460844002303A90390B2
:1005D000684604F07DFF09E0A0F500504A461F3848
:1005E000002303A90390684604F087FF8DE8070005
:1005F0000004000C03D04FF0FF30410800E010462B
:10060000B8F1000F03D00022009215461EE0751EBF
:1006100005D400F0DDF9303262556D1EF9D5B346D0
:100620000122084302D000227F1C04E020783028F9
:1006300001D100227F1E002A099784D01DE0112DD0
:1006400007DA00F0C5F9303262556D1C50EA01023C
:10065000F5D1084302D00098C8B10EE00021681E11
:1006600005E0235C625C63542254401E491C8142B5
:10067000F7DBAB46A81B401E0990002004F80B00D6
:100680000B98099AC0F80880C0E9002B7AE7112678
:100690004FF0000857E72DE9F04F88460446D21D79
:1006A00022F0070191B0D1E90001CDE90A0105F07E
:1006B0005BF802460B98C00F01D02D2007E02068A0
:1006C000810701D52B2002E0202101EAC000032A86
:1006D000099001D0072A05DB03464146204600F079
:1006E000BDF90BE12078800601D5E06900E0062025
:1006F000B8F1650F814606D0B8F1660F18D0B8F191
:10070000670F70D131E00020B9F1110F009001DBCB
:10071000112301E009F101030AAA01A90CA8FFF7BE
:10072000E2FEDDE90C70002609F10105834647E091
:1007300001204B4600904FF000470AAA01A90CA8DF
:10074000FFF7D1FEDDE90DB00C995D46002610B92A
:1007500009F101000D18B9EB050003D4C0F1FF3613
:1007600009F10105A5EB09002BE0B9F1010F01DA50
:100770004FF001090020B9F1110F0090484601DD4A
:10078000112300E003460AAA01A90CA8FFF7ABFE5B
:10079000DDE90C704D4600268346207800070AD418
:1007A000AB4500DA5D4601A8012D04DD411911F8C1
:1007B000011C302907D04F4502DA17F1040F04DA83
:1007C000012082460FE06D1EEEE7002F02DCED1BDC
:1007D0003E4403E0781CA84200DD7D1CB81B00F1FC
:1007E000010A4FF000472078000703D4AA4501DB37
:1007F0004FF0FF3A0021B7F1004F0DF143088DF89B
:10080000431024D002202B23002F01DA7F422D2316
:100810000A21021EA0F1010000DC5FB197FBF1FC90
:1008200097FBF1F201FB1C7C17460CF1300C08F829
:1008300001CDEEE7A8F1010003702188090501D57B
:10084000452100E06521A0F1010800F8011C09988C
:100850000FA9A1EB0807FF1D00B10120411901EB11
:10086000EA70A1693844081A401EA0612078C006C9
:1008700002D42046AFF30080099828B1D4E90121C1
:100880009047206A401C20622078C00622D520466E
:10089000AFF300801EE0002E04DBB34502DD01A8AB
:1008A000805D00E03020D4E901219047206A401C9F
:1008B0002062761CAAF101005FEA000A0AD100F06A
:1008C00083F8C0680168405CD4E901219047206A40
:1008D000401C2062281EA5F10105DCDC07E0D4E9FC
:1008E000012118F8010B9047206A401C2062381E35
:1008F000A7F10107F3DC2046AFF30080032011B01D
:1009000041E6000001694A1C02610878704700B5A1
:100910008FB0CDE901310021059105497944CDE938
:10092000031011466846FFF7CBFC0FB000BD000076
:10093000E5FFFFFF0A6802F8010B0A6070472DE926
:10094000F04791460F4680460446002614F8015BA6
:100950002DB100F031F80068405DC007F6D12B2DB5
:1009600002D02D2D18D0641E4A463946204600F08C
:10097000B5F827B13968A14201D1C7F800804FF01E
:10098000020471050BD54042002803DDFFF74EFD40
:100990000460A007BDE8F08746F48066E4E700281D
:1009A000F8DAFFF743FD04606FF00040F2E7000063
:1009B000004870471000002010B500F005F8001D39
:1009C00010BD00BF094E00000048704730000020F5
:1009D00030B5B0F10A0271F100034FEA900E4EEA11
:1009E000817EB0EB0E0061EB91014FEA101E4EEAE2
:1009F000017E10EB0E0041EB11114FEA102E4EEA72
:100A0000016E10EB0E0041EB11214FEA104E4EEA41
:100A1000014E10EB0E0041EB1141401841F1000175
:100A20004FEAD00040EA41704FEAD1014FEA810419
:100A300044EA907410EB800544EB01046D1944EB1B
:100A40000404521BA3414FF0000348BF0A3200D5F3
:100A500030BD401C41F1000130BD00002DE9F041E6
:100A60001F46044603260168072A01F4006004DBE0
:100A700008B116A505E016A503E008B115A500E02C
:100A800015A521F010002060A069C01EA0610FB163
:100A9000401EA0612046AFF300804FB1D4E9012190
:100AA00038469047206A401C2062C01C206206E045
:100AB000206AFAE7D4E9012115F8010B9047761E68
:100AC000F8D22046AFF30080BDE8F0814E414E00E1
:100AD0006E616E00494E4600696E66002DE9F05F5A
:100AE000824615468B4600270AF10104B946007874
:100AF000302801D09DB113E014F8010B01277828AC
:100B000003D0582801D045B10AE00DB1102D07D10E
:100B1000002714F8010B102502E0082500E00A2543
:100B20000026B0460EE005FB080005FB06F1012794
:100B30001FFA80F801EB1046B6F5803F00D3B946A6
:100B400014F8010B294600F0B0F80028EBDABBF1ED
:100B5000000F05D00FB1641E00E05446CBF80040F2
:100B6000B9F1000F06D0FFF761FC02210160C81E39
:100B7000BDE8F09F48EA0640FAE700002DE9F0479B
:100B8000814616468AB0354878440DC88DE80D0078
:100B900032487844801C03AC0DC884E80D0041F64F
:100BA0009B300844372190FBF1F290FBF1F5A5F161
:100BB000800501FB12041B3C02D56442012000E0C9
:100BC0000020DFF898A080460027FA44AAF1BE0A68
:100BD0000EE0E0070AD03246684607EB47010123E2
:100BE0000AEB810104F089FC8DE8070064107F1C8A
:100BF000002CEED1194F7F44AE3F19E0E80715D025
:100C000007EB04100DF1180A90E80E008AE80E00B8
:100C1000C068F04201D1981908903246012306A914
:100C200003A804F06AFC03AB83E807006D10641CA2
:100C3000002DE3D14FF0010332466946B8F1000FB1
:100C400003A802D004F044FC01E004F056FCC9E91A
:100C50000001C9F808200AB0BDE8F0876C4F000019
:100C60007546FFF7A5FEAE4605006946534620F0DF
:100C70000700854618B020B5FFF7C0FABDE8204050
:100C80004FF000064FF000074FF000084FF0000B48
:100C9000AC46ACE8C009ACE8C009ACE8C009ACE8B7
:100CA000C00921F007018D4670473A2800D230383C
:100CB00020F02002412A01D3A2F13700884201D35B
:100CC0004FF0FF30704710B50446AFF30080204668
:100CD000BDE81040FFF77DBA4FF0013C50F8042BFF
:100CE00051F8043B9A4221D1A2EB0C03934313EA3F
:100CF000CC1317D150F8042B51F8043B9A4215D16C
:100D0000A2EB0C03934313EACC130BD150F8042B42
:100D100051F8043B9A4209D1A2EB0C03934313EA26
:100D2000CC13DBD04FF00000704700BFD01A01BADF
:100D3000B1FA81F101F0180122FA01F0CB40DBB2E7
:100D4000C0B2C01AC1F120012CFA01F3D11A9143AB
:100D500011EAC311E6D1704701491820ABBEFEE786
:100D60002600020070470000FEE7000070B582B068
:100D7000C47A40F2B0262146002C18BF0121C900D8
:100D8000C2F200060A1D33688DF804201A68002597
:100D9000556200BF556AB5F57A7F0BD2556AED08EA
:100DA0007C2D07D8556AED087C2D03D8556AB5F51A
:100DB0007A7FEFD318221C25002C08BF102208BF11
:100DC00014258DF805108DF80650196800234B6224
:100DD0004B6AB3F57A7F0BD24B6ADB087C2B07D8C2
:100DE0004B6ADB087C2B03D84B6AB3F57A7FEFD3D1
:100DF000036801798DF80720642501AA18460423A9
:100E0000009501F0DDFA30680021006840F8241FE9
:100E10000168B1F57A7F0BD20168C9087C2907D82F
:100E20000168C9087C2903D80168B1F57A7FEFD33E
:100E30000168B1F57A7F0BD20168C9087C2907D80F
:100E40000168C9087C2903D80168B1F57A7FEFD31E
:100E50000168B1F57A7F0BD20168C9087C2907D8EF
:100E60000168C9087C2903D80168B1F57A7FEFD3FE
:100E70000168B1F57A7F19D20168C9087C2915D8B3
:100E80000168C9087C2911D80168B1F57A7FEFD3D0
:100E90000CE000BF0168C9087C290BD80168C908AB
:100EA0007C2907D80168B1F57A7F03D20168B1F5D2
:100EB0007A7FEFD302B070BD2DE9F04383B00446D2
:100EC000DDE90A6040F2B025C2F200051F469046F7
:100ED0008946286002F0F6FA40F60640C4F8009011
:100EE000C2F61400C4F8070028680821E1720168FE
:100EF000002284F804806771A67141F8242F00BF96
:100F00000A68B2F57A7F0BD20A68D2087C2A07D821
:100F10000A68D2087C2A03D80A68B2F57A7FEFD330
:100F20000A68B2F57A7F0BD20A68D2087C2A07D801
:100F30000A68D2087C2A03D80A68B2F57A7FEFD310
:100F40000A68B2F57A7F0BD20A68D2087C2A07D8E1
:100F50000A68D2087C2A03D80A68B2F57A7FEFD3F0
:100F60000A68B2F57A7F0BD20A68D2087C2A07D8C1
:100F70000A68D2087C2A03D80A68B2F57A7FEFD3D0
:100F80000A68B2F57A7F0BD20A68D2087C2A07D8A1
:100F90000A68D2087C2A03D80A68B2F57A7FEFD3B0
:100FA0000A68B2F57A7F0BD20A68D2087C2A07D881
:100FB0000A68D2087C2A03D80A68B2F57A7FEFD390
:100FC0000A68B2F57A7F0BD20A68D2087C2A07D861
:100FD0000A68D2087C2A03D80A68B2F57A7FEFD370
:100FE0000A68B2F57A7F0BD20A68D2087C2A07D841
:100FF0000A68D2087C2A03D80A68B2F57A7FEFD350
:101000000A68B2F57A7F0BD20A68D2087C2A07D820
:101010000A68D2087C2A03D80A68B2F57A7FEFD32F
:101020000A68B2F57A7F0BD20A68D2087C2A07D800
:101030000A68D2087C2A03D80A68B2F57A7FEFD30F
:101040000A68B2F57A7F0BD20A68D2087C2A07D8E0
:101050000A68D2087C2A03D80A68B2F57A7FEFD3EF
:101060000A68B2F57A7F0BD20A68D2087C2A07D8C0
:101070000A68D2087C2A03D80A68B2F57A7FEFD3CF
:101080000A68B2F57A7F0BD20A68D2087C2A07D8A0
:101090000A68D2087C2A03D80A68B2F57A7FEFD3AF
:1010A0000A68B2F57A7F0BD20A68D2087C2A07D880
:1010B0000A68D2087C2A03D80A68B2F57A7FEFD38F
:1010C0000A68B2F57A7F0BD20A68D2087C2A07D860
:1010D0000A68D2087C2A03D80A68B2F57A7FEFD36F
:1010E0000A68B2F57A7F0BD20A68D2087C2A07D840
:1010F0000A68D2087C2A03D80A68B2F57A7FEFD34F
:101100000A68B2F57A7F0BD20A68D2087C2A07D81F
:101110000A68D2087C2A03D80A68B2F57A7FEFD32E
:101120000A68B2F57A7F0BD20A68D2087C2A07D8FF
:101130000A68D2087C2A03D80A68B2F57A7FEFD30E
:101140000A68B2F57A7F0BD20A68D2087C2A07D8DF
:101150000A68D2087C2A03D80A68B2F57A7FEFD3EE
:101160000A68B2F57A7F0BD20A68D2087C2A07D8BF
:101170000A68D2087C2A03D80A68B2F57A7FEFD3CE
:101180000A68B2F57A7F0BD20A68D2087C2A07D89F
:101190000A68D2087C2A03D80A68B2F57A7FEFD3AE
:1011A0000A68B2F57A7F0BD20A68D2087C2A07D87F
:1011B0000A68D2087C2A03D80A68B2F57A7FEFD38E
:1011C0000A68B2F57A7F0BD20A68D2087C2A07D85F
:1011D0000A68D2087C2A03D80A68B2F57A7FEFD36E
:1011E0000A68B2F57A7F0BD20A68D2087C2A07D83F
:1011F0000A68D2087C2A03D80A68B2F57A7FEFD34E
:101200000A68B2F57A7F0BD20A68D2087C2A07D81E
:101210000A68D2087C2A03D80A68B2F57A7FEFD32D
:101220000A68B2F57A7F0BD20A68D2087C2A07D8FE
:101230000A68D2087C2A03D80A68B2F57A7FEFD30D
:101240000A68B2F57A7F0BD20A68D2087C2A07D8DE
:101250000A68D2087C2A03D80A68B2F57A7FEFD3ED
:101260000A68B2F57A7F0BD20A68D2087C2A07D8BE
:101270000A68D2087C2A03D80A68B2F57A7FEFD3CD
:101280000A68B2F57A7F0BD20A68D2087C2A07D89E
:101290000A68D2087C2A03D80A68B2F57A7FEFD3AD
:1012A0000A68B2F57A7F0BD20A68D2087C2A07D87E
:1012B0000A68D2087C2A03D80A68B2F57A7FEFD38D
:1012C0000A68B2F57A7F0BD20A68D2087C2A07D85E
:1012D0000A68D2087C2A03D80A68B2F57A7FEFD36D
:1012E0000A68B2F57A7F0BD20A68D2087C2A07D83E
:1012F0000A68D2087C2A03D80A68B2F57A7FEFD34D
:101300000A68B2F57A7F0BD20A68D2087C2A07D81D
:101310000A68D2087C2A03D80A68B2F57A7FEFD32C
:101320000A68B2F57A7F0BD20A68D2087C2A07D8FD
:101330000A68D2087C2A03D80A68B2F57A7FEFD30C
:101340000A68B2F57A7F0BD20A68D2087C2A07D8DD
:101350000A68D2087C2A03D80A68B2F57A7FEFD3EC
:101360000A68B2F57A7F0BD20A68D2087C2A07D8BD
:101370000A68D2087C2A03D80A68B2F57A7FEFD3CC
:101380000A68B2F57A7F0BD20A68D2087C2A07D89D
:101390000A68D2087C2A03D80A68B2F57A7FEFD3AC
:1013A0000A68B2F57A7F0BD20A68D2087C2A07D87D
:1013B0000A68D2087C2A03D80A68B2F57A7FEFD38C
:1013C0000A68B2F57A7F0BD20A68D2087C2A07D85D
:1013D0000A68D2087C2A03D80A68B2F57A7FEFD36C
:1013E0000A68B2F57A7F0BD20A68D2087C2A07D83D
:1013F0000A68D2087C2A03D80A68B2F57A7FEFD34C
:101400000A68B2F57A7F0BD20A68D2087C2A07D81C
:101410000A68D2087C2A03D80A68B2F57A7FEFD32B
:101420000A68B2F57A7F0BD20A68D2087C2A07D8FC
:101430000A68D2087C2A03D80A68B2F57A7FEFD30B
:101440000A68B2F57A7F0BD20A68D2087C2A07D8DC
:101450000A68D2087C2A03D80A68B2F57A7FEFD3EB
:101460000A68B2F57A7F0BD20A68D2087C2A07D8BC
:101470000A68D2087C2A03D80A68B2F57A7FEFD3CB
:101480000A68B2F57A7F0BD20A68D2087C2A07D89C
:101490000A68D2087C2A03D80A68B2F57A7FEFD3AB
:1014A0000A68B2F57A7F0BD20A68D2087C2A07D87C
:1014B0000A68D2087C2A03D80A68B2F57A7FEFD38B
:1014C0000A68B2F57A7F0BD20A68D2087C2A07D85C
:1014D0000A68D2087C2A03D80A68B2F57A7FEFD36B
:1014E0000A68B2F57A7F0BD20A68D2087C2A07D83C
:1014F0000A68D2087C2A03D80A68B2F57A7FEFD34B
:101500000A68B2F57A7F19D20A68D2087C2A15D8FF
:101510000A68D2087C2A11D80A68B2F57A7FEFD31C
:101520000CE000BF0A68D2087C2A0BD80A68D208EF
:101530007C2A07D80A68B2F57A7F03D20A68B2F526
:101540007A7FEFD33C218DF80810016800224A62AF
:101550004A6AB2F57A7F0BD24A6AD2087C2A07D847
:101560004A6AD2087C2A03D84A6AB2F57A7FEFD356
:1015700043F63841ADF8091000680021416200BF10
:10158000416AB1F57A7F0BD2416AC9087C2907D834
:10159000416AC9087C2903D8416AB1F57A7FEFD343
:1015A0003827642602AA4846414604238DF80B706A
:1015B000009600F005FFE07A002300284FF03C0081
:1015C00008BF302708BF342029688DF808000A6852
:1015D000536200BF536AB3F57A7F0BD2536ADB08BC
:1015E0007C2B07D8536ADB087C2B03D8536AB3F5EE
:1015F0007A7FEFD38DF809708DF80A000868002112
:10160000416200BF416AB1F57A7F0BD2416AC908D5
:101610007C2907D8416AC9087C2903D8416AB1F5F9
:101620007A7FEFD3206821798DF80B70642702AAA6
:101630000423009700F0C4FE28680022016841F8E6
:10164000242F00BF0A68B2F57A7F0BD20A68D2084D
:101650007C2A07D80A68D2087C2A03D80A68B2F51F
:101660007A7FEFD30A68B2F57A7F0BD20A68D20884
:101670007C2A07D80A68D2087C2A03D80A68B2F5FF
:101680007A7FEFD30A68B2F57A7F0BD20A68D20864
:101690007C2A07D80A68D2087C2A03D80A68B2F5DF
:1016A0007A7FEFD30A68B2F57A7F19D20A68D20836
:1016B0007C2A15D80A68D2087C2A11D80A68B2F5A3
:1016C0007A7FEFD30CE000BF0A68D2087C2A0BD8DF
:1016D0000A68D2087C2A07D80A68B2F57A7F03D252
:1016E0000A68B2F57A7FEFD3E37A38213C22002BE7
:1016F00008BF302108BF34228DF808200268002777
:10170000576200BF576AB7F57A7F0BD2576AFF0856
:101710007C2F07D8576AFF087C2F03D8576AB7F584
:101720007A7FEFD32822002B4FF02C0308BF202212
:1017300008BF24238DF809108DF80A3000680021B5
:10174000416200BF416AB1F57A7F0BD2416AC90894
:101750007C2907D8416AC9087C2903D8416AB1F5B8
:101760007A7FEFD3206821798DF80B20642702AAB5
:101770000423009700F024FE28680022016841F845
:10178000242F00BF0A68B2F57A7F0BD20A68D2080C
:101790007C2A07D80A68D2087C2A03D80A68B2F5DE
:1017A0007A7FEFD30A68B2F57A7F0BD20A68D20843
:1017B0007C2A07D80A68D2087C2A03D80A68B2F5BE
:1017C0007A7FEFD30A68B2F57A7F0BD20A68D20823
:1017D0007C2A07D80A68D2087C2A03D80A68B2F59E
:1017E0007A7FEFD30A68B2F57A7F19D20A68D208F5
:1017F0007C2A15D80A68D2087C2A11D80A68B2F562
:101800007A7FEFD30CE000BF0A68D2087C2A0BD89D
:101810000A68D2087C2A07D80A68B2F57A7F03D210
:101820000A68B2F57A7FEFD3E27A28212C23002AC6
:1018300008BF202108BF24238DF808300368002743
:101840005F6200BF5F6AB7F57A7F0BD25F6AFF08FD
:101850007C2F07D85F6AFF087C2F03D85F6AB7F533
:101860007A7FEFD3002A18BF0122D2008DF8091029
:10187000111D8DF80A10006800214162416AB1F51E
:101880007A7F0BD2416AC9087C2907D8416AC90806
:101890007C2903D8416AB1F57A7FEFD3206821799A
:1018A0008DF80B20642702AA0423009700F088FD1E
:1018B00028680022016841F8242F00BF0A68B2F5A9
:1018C0007A7F0BD20A68D2087C2A07D80A68D20825
:1018D0007C2A03D80A68B2F57A7FEFD30A68B2F59A
:1018E0007A7F0BD20A68D2087C2A07D80A68D20805
:1018F0007C2A03D80A68B2F57A7FEFD30A68B2F57A
:101900007A7F0BD20A68D2087C2A07D80A68D208E4
:101910007C2A03D80A68B2F57A7FEFD30A68B2F559
:101920007A7F19D20A68D2087C2A15D80A68D208A8
:101930007C2A11D80A68B2F57A7FEFD30CE000BF99
:101940000A68D2087C2A0BD80A68D2087C2A07D8F1
:101950000A68B2F57A7F03D20A68B2F57A7FEFD3CC
:10196000E179E77A01F0F002002F18BF0832131D69
:101970008DF80830036800265E6200BF5E6AB6F527
:101980007A7F0BD25E6AF6087C2E07D85E6AF6086C
:101990007C2E03D85E6AB6F57A7FEFD30B0108334D
:1019A000002F08BF0B01191D8DF809208DF80A10B2
:1019B00000680021416200BF416AB1F57A7F0BD215
:1019C000416AC9087C2907D8416AC9087C2903D81B
:1019D000416AB1F57A7FEFD3206821798DF80B3019
:1019E000642702AA0423009700F0EAFC207AE77A31
:1019F00000F0F001002F18BF08310A1D2B688DF888
:101A000008201A6800265662566AB6F57A7F0BD20D
:101A1000566AF6087C2E07D8566AF6087C2E03D83C
:101A2000566AB6F57A7FEFD302010832002F08BF5D
:101A30000201101D8DF809108DF80A0018680021A8
:101A4000416200BF416AB1F57A7F0BD2416AC90891
:101A50007C2907D8416AC9087C2903D8416AB1F5B5
:101A60007A7FEFD3206821798DF80B20642702AAB2
:101A70000423009700F0A4FC607AE77A00F0F001FC
:101A8000002F18BF08310A1D2B688DF808201A682E
:101A900000265662566AB6F57A7F0BD2566AF60869
:101AA0007C2E07D8566AF6087C2E03D8566AB6F5FF
:101AB0007A7FEFD302010832002F08BF0201101D08
:101AC0008DF809108DF80A0018680021416200BFE6
:101AD000416AB1F57A7F0BD2416AC9087C2907D8DF
:101AE000416AC9087C2903D8416AB1F57A7FEFD3EE
:101AF000206821798DF80B20642702AA042300971F
:101B000000F05EFCA07AE77A00F0F001002F18BF29
:101B100008310A1D2B688DF808201A6800265662C5
:101B2000566AB6F57A7F0BD2566AF6087C2E07D82D
:101B3000566AF6087C2E03D8566AB6F57A7FEFD33C
:101B400002010832002F08BF0201101D8DF8091094
:101B50008DF80A0018680021416200BF416AB1F5A2
:101B60007A7F0BD2416AC9087C2907D8416AC90823
:101B70007C2903D8416AB1F57A7FEFD320682179B7
:101B80008DF80B20642702AA0423009700F018FCAC
:101B9000E37A00271846002B18BF0120C000021D61
:101BA00029688DF808200A68576200BF576AB7F5A0
:101BB0007A7F0BD2576AFF087C2F07D8576AFF0835
:101BC0007C2F03D8576AB7F57A7FEFD31822002B02
:101BD0004FF01C0308BF102208BF14238DF8090022
:101BE0008DF80A3008680021416200BF416AB1F5F2
:101BF0007A7F0BD2416AC9087C2907D8416AC90893
:101C00007C2903D8416AB1F57A7FEFD32068217926
:101C10008DF80B20642702AA0423009700F0D0FB64
:101C2000E37A00271846002B18BF0120C000021DD0
:101C300029688DF808200A68576200BF576AB7F50F
:101C40007A7F0BD2576AFF087C2F07D8576AFF08A4
:101C50007C2F03D8576AB7F57A7FEFD32822002B61
:101C60004FF02C0308BF202208BF24238DF8090061
:101C70008DF80A3008680021416200BF416AB1F561
:101C80007A7F0BD2416AC9087C2907D8416AC90802
:101C90007C2903D8416AB1F57A7FEFD32068217996
:101CA0008DF80B20642702AA0423009700F088FB1C
:101CB00003B0BDE8F083000010B582B0437990F81E
:101CC00006C08B4298BF591E944598BFACF10102E3
:101CD000D2B2032A05D8DFE802F009020608403133
:101CE00004E0002102E0143100E0543190F80BC010
:101CF00001F070026FF07703BCF1000F08BF6FF0C6
:101D00007F0303EB020E40F2B022C2F2000213681E
:101D10000EF104028DF804201A680024546200BFFA
:101D2000546AB4F57A7F0BD2546AE4087C2C07D845
:101D3000546AE4087C2C03D8546AB4F57A7FEFD354
:101D40000A010832BCF1000F08BF0A01111D8DF80D
:101D500005E08DF80610196800234B624B6AB3F555
:101D60007A7F0BD24B6ADB087C2B07D84B6ADB08E7
:101D70007C2B03D84B6AB3F57A7FEFD303680179E4
:101D80008DF80720642401AA18460423009400F06B
:101D900017FB02B010BD00002DE9F04F83B00C46D8
:101DA000097800295BD040F2B0280546C2F200084D
:101DB0004FF0000B4FF064090DF1080A10E000BF6E
:101DC00043F00102286829798DF80B20524604233C
:101DD000CDF8009000F0F4FA14F8011F00293ED06D
:101DE000EA7A21F00F03002A18BF08335E1DD8F8E5
:101DF00000008DF808600668C6F824B0776AB7F569
:101E00007A7F0BD2776AFF087C2F07D8776AFF08A2
:101E10007C2F03D8776AB7F57A7FEFD343F00106BA
:101E20000B010833002A08BF0B01591D8DF809600A
:101E30008DF80A100068C0F824B000BF416AB1F5FF
:101E40007A7FBDD2416AC9087C29B9D8416AC908DC
:101E50007C29B5D8416AB1F57A7FEFD3B0E703B0FA
:101E6000BDE8F08F10B584B004460068E11D032280
:101E70004FF47A7CCDE90012D02100220123CDF865
:101E800008C000F055FCE079217A030903EB8303D5
:101E900000F00F0000EB430020750809627A00EBA8
:101EA000800001F00F0101EB4000E074100900EB2D
:101EB000800002F00F0101EB4000A07404B010BDDF
:101EC0000160704770470000014690F82100022829
:101ED00016D10868D1E90FC3026822F00E02026031
:101EE000026822F001020260012000FA03F2CCF83D
:101EF000042081F821000020002281F82020704772
:101F0000042088630120002281F82020704700000F
:101F100080B590F82110022923D10268116821F0C0
:101F20000E0111602F211368C4F202018A4240F2AF
:101F30000401C4F2020123F00103136016DD302313
:101F4000C4F202039A421DD04423C4F202039A420F
:101F50001BD05823C4F202039A421BD14FF48033A2
:101F600020E0042181630121084680BD0823C4F2DA
:101F700002039A420CD01C23C4F202039A4209D1F4
:101F800010230FE04FF480730CE04FF4805309E00E
:101F9000012307E001F1680C4FF08073624508BF30
:101FA0004FF480130B60012180F82110426B002157
:101FB00080F820100AB190470021084680BD00003B
:101FC000B0B5044600F024F9054640F20000C2F224
:101FD00000000078611C18BF044400BF00F018F92D
:101FE000401BA042FAD3B0BD2DE9F04F82B00E687D
:101FF000002E00F0FD8040F20C4C41F200424FF602
:10200000FF7BC4F2010CC4F2010204230024012767
:10201000C1F2100B4FF0000A4FF000094FF00F0E05
:10202000904208BF032300933EE00123BB402B43B3
:1020300042F82B30D1F804B040F20047C4F2010757
:102040005FEACB22BA6854BF22EA080242EA0802D9
:10205000BA60DCF800205FEA8B2354BF22EA080252
:1020600042EA0802CCF800207A685FEA8B3354BF5A
:1020700022EA080242EA08027A605FEACB333A6851
:102080004FF6FF7B54BF22EA080242EA08023A6098
:102090000127C1F2100B0E680AF1010A36FA0AF2A2
:1020A00004F1040400F0A48007FA0AF816EA080F05
:1020B000F1D04A685A4511DC122A51D8DFE802F003
:1020C000340A42465050505050505050505050508A
:1020D00050494D00D1F80C9042E000BF4FF6FF731D
:1020E000C1F221039A420FDC0023C1F211039A428C
:1020F0001AD00023C1F212039A4215D00023C1F274
:1021000021039A4210D02BE00023C1F222039A420D
:102110000AD00023C1F231039A4205D00023C1F254
:1021200032039A421CD100BF8A6842B1012A14BF0F
:10213000C0F81480C0F810804FF0080910E04FF08C
:1021400004090DE0CA6802F1080909E04FF000092E
:1021500006E0CA6802F1040902E0CA6802F10C094B
:1021600022460346BAF1080F24BF203A04331D6803
:102170000EFA02F6B54309FA02F22A431A60CA7946
:10218000D2067FF588AF41F21803C4F202031A6841
:102190004FEA9A0B42F001021A601A6804F00C0729
:1021A00002F001020192019A40F20042C4F20102DF
:1021B000A2F57E7252F82B3040F600060EFA07F5B3
:1021C000C4F20106B04223EA05050FD040F60043F1
:1021D000C4F2010398423FF428AF41F20003C4F275
:1021E00001039842009B08BF02231FE700231DE75D
:1021F00002B0BDE8F08F00008068084018BF0120E1
:1022000070470000002A08BF090401617047000000
:1022100040F2B420C2F2000000687047B0B5B0B31D
:10222000044690F83D0028B9002084F83C00204680
:1022300000F048FC242084F83D002068016821F06B
:1022400001010160016841F400410160016821F46D
:102250000041016000F0F8FD48F28041C0F21E012B
:1022600040F6001288424FF00001C0F23D0265685E
:1022700038BF0121904248F2A1624FF00003C0F242
:10228000010238BF0123954238BF0B460BB1012034
:10229000B0BD4DF68361C4F21B31A0FB0112216871
:1022A0004FEA924C4B6823F03F0343EA92424A6064
:1022B0000A6A48F2A063C0F201039D4222F03F0384
:1022C00013D80CF1010201386D001A43B0FBF5F090
:1022D0000A62CA6901304CF6FF736FF31F3022EABD
:1022E000030C042898BF04203FE04FF496720CFBC7
:1022F00002FC44F6D352C1F26202ACFB022C012272
:1023000002EB9C121A430A62CA69A3684CF6FF7C6E
:1023100022EA0C0CA0F1010E9BB119206843BEFB10
:10232000F0F00422013062F31F30000512D09BB19F
:1023300019206843BEFBF0F00422013062F31F3025
:1023400011E005EB4500BEFBF0F001306FF31F30EC
:102350000005ECD1012008E005EB4500BEFBF0F0E4
:1023600001306FF31F3040F4004040EA0C00C861B8
:102370000868D4E9072320F0C00010431843086020
:10238000886848F2FF3204F10C0C90439CE82C1052
:10239000184310438860C86820F0FF00284340EAD3
:1023A0000C00C860086840F001000860002020218F
:1023B000206484F83D10206384F83E00B0BD000026
:1023C0002DE9F04182B01E46174688460446FFF7C5
:1023D0001FFF94F83D10202920D10546206800BF3A
:1023E0008169890716D5FFF713FF411B20681A2959
:1023F000F6D381698907F3D500202021206384F872
:102400003D1084F83E00216C41F02001216484F8E5
:102410003C0003E094F83C10012903D1022002B0F3
:10242000BDE8F081012184F83C100168C90703D19F
:10243000016841F001010160016821F4006101605F
:10244000212184F83D10102184F83E1000212164E0
:1024500067626685618D089E21850021CFF6FF7138
:10246000E162E16A11F5803F18BF012938D10168A6
:1024700041F480710160771C3BD04169C90742D1AA
:102480001EB910E04169C9073DD1FFF7C1FE411BEC
:102490002068B142F6D94169C907F3D109E000BF0C
:1024A0004169C9072FD1FFF7B3FE20684169C90709
:1024B000F6D100212022216384F83D2084F83E10CB
:1024C000226C42F02002226484F83C100068C005AF
:1024D00044BF4FF400702064012002B0BDE8F081D9
:1024E0000829C4D0216B1229C1D0C4E74169C907AA
:1024F00009D14169C90706D14169C90704BF4169CA
:102500005FEAC171F2D02169B1F5804F06D1FE2199
:1025100001EA0801002F016144D175E0062101EABA
:10252000D811F0310161AFB34169090735D4416970
:10253000002E01F4806100F0C980002940F0D480B1
:10254000FFF766FE411B2068B14203D941690907C4
:1025500040F1E280416909071FD441694905EFD57F
:10256000C2E04169490500F1BF804169090714D4FF
:102570004169490500F1B880416909070DD44169F5
:10258000490500F1B1804169090706D4416949054F
:1025900000F1AA8041690907E3D5FF2101EA08019A
:1025A00001618FB34169890731D44169002E01F47B
:1025B00080617DD0002940F09780FFF729FE411B04
:1025C0002068B14203D94169890740F1A58041697A
:1025D00089071CD441694905EFD585E04169490562
:1025E00000F182804169890711D4416949057BD492
:1025F000416989070BD44169490575D44169890747
:1026000005D4416949056FD441698907E6D50021A0
:1026100001914169019180690190019806E000BF34
:10262000204631462A4602F093F820BB208D78B32D
:10263000204631462A4602F043F9E0B9606A216833
:10264000024612F8013B0B616262628D013A6285BB
:10265000228D571E27854B693F0418BF13F00403D2
:10266000DED0437802300B616062608D0138608596
:10267000901E2085D4E7206C04287FF42DAF2068BD
:10268000016841F400710160012002B0BDE8F081F1
:102690002068016841F400710160202084F83D0049
:1026A000002084F83E0084F83C0002B0BDE8F081D0
:1026B000D1B9FFF7ADFD2068416989072CD5416983
:1026C0008907A4D441694905F3D50DE061B9FFF745
:1026D0009FFD2068416909071ED5416909073FF53B
:1026E0005CAF41694905F2D5016841F400710160B0
:1026F0006FF48061416100202021206384F83D1047
:1027000084F83E00216C41F00401216484F83C000F
:10271000012002B0BDE8F08100202021206384F870
:102720003D1084F83E00216C41F02001EDE70000EF
:102730002DE9F04F85B004460020994616460F4615
:102740000490FFF765FD94F83D10202920D105463F
:10275000206800BF8169890716D5FFF759FD411B25
:1027600020681A29F6D381698907F3D50020202132
:10277000206384F83D1084F83E00216C41F0200174
:10278000216484F83C0003E094F83C10012903D153
:10279000022005B0BDE8F08F012284F83C200368D8
:1027A000DDE90F180E9ADB0703D1036843F001033C
:1027B0000360036823F400630360222084F83D0073
:1027C000402084F83E000020206462626185608DB4
:1027D000394620850020CFF6FF70E0622046324661
:1027E0004B46CDF80080019501F036FE18B101206E
:1027F00005B0BDE8F08F218D01290DD011BB00205F
:1028000003902068416903918169039103990168EC
:1028100041F40071016037E02068016821F48061B3
:102820000160EFF3108072B60020039020684169C8
:102830000391816903910399016841F4007101607A
:1028400062B621E020680229026813D142F40061D7
:102850000160EFF3108072B6002003902068416998
:102860000391816903910399016821F480610160FA
:1028700062B609E042F48061016000210391416980
:102880000391806903900398208D002800F0FD805B
:1028900040F208094BF2895A08F10106C2F2000918
:1028A000C1F2F84A23270DE010690870606A218D93
:1028B00001306062481E2085618D01396185010407
:1028C00000F0E3801FFA80FBBBF1030F0CD8BBF1D3
:1028D000010F2AD1204641462A4601F0A5FF0028D3
:1028E00000F0CF8083E700BF204641462A4601F032
:1028F0009BFF00287FF47BAF2068616A0069087045
:10290000606A2268411C208D616201382085638DD8
:10291000013B638553695B07D1D580B20328C3D1DE
:10292000106820F480601060BEE7206866B34169DB
:10293000490735D4B8F1000F0DD1FFF769FC2068C5
:102940004169490710D541694907F6D528E000BF1C
:102950004169490724D4FFF75BFC411B20684145CE
:10296000F6D941694907F3D400222021226384F873
:102970003D1084F83E20216C41F0200121640121AA
:1029800084F83C200DE000BF4169490708D4416943
:10299000490705D44169490702D441694907F3D57C
:1029A0000021BBF1020F18D100297FF420AFEFF313
:1029B000108072B62068616A026842F40072026098
:1029C00000690870606A218D01306062481E2085B0
:1029D000608D0138608562B653E000297FF407AF4F
:1029E000016821F480610160EFF3108072B6206805
:1029F000616A00690870606A218D01300139606286
:102A00002185618D01396185D9F80010C908A1FBC4
:102A10000A12110A79430491049901390491049925
:102A200000293DD021684A6952071AD40499013916
:102A300004910499A1B321684A69520711D40499F9
:102A400001390491049959B321684A69520708D49D
:102A5000049901390491049911B321684A69520714
:102A6000DAD50A6842F400720A6009690170606A86
:102A7000218D01306062481E2085608D013860859F
:102A800062B62068616A00690FE7202084F83D0083
:102A9000002084F83E0084F83C0005B0BDE8F08FCB
:102AA00000202021206384F83D1084F83E00216C32
:102AB00041F02001216462B684F83C00012005B099
:102AC000BDE8F08F10B586B0016845F20040C4F251
:102AD000000081424FF00001CDE90411CDE902115F
:102AE00001D006B010BD41F21804C4F202042168FE
:102AF00000F5384041F008012160216801F008012B
:102B000001910199C02102911221039103210591A4
:102B100002A9FFF769FA606840F40010606060681D
:102B200000F400100190019806B010BD40F20000C2
:102B300040F2B421C2F20000C2F2000100780A683B
:102B4000104408607047000080B542F20000C4F2F3
:102B50000200016841F010010160032000F08AF8D2
:102B60000F2000F005F800F027F8002080BD0000DD
:102B700070B540F20006C2F2000640F20801327859
:102B8000C2F200014FF47A730968B3FBF2F2044613
:102B9000B1FBF2F1084600F04DFB0F2C4FF00105A0
:102BA00008D838B94FF0FF3021460022002500F048
:102BB00035F87460284670BD82B041F21800C4F246
:102BC00002000168022241F001010160016801F088
:102BD000010101910199416841F0805141604068D3
:102BE00000F08050009000980420C4F201000168B9
:102BF00062F31A61016002B070470000002848BF0C
:102C0000704700F01F01012202FA01F14EF200129A
:102C10004009CEF2000242F82010704710B54EF67F
:102C20000C5CCEF2000CDCF80030C3F3022E8EF008
:102C30000704042C28BF0424BEF103034FF0FF3E19
:102C40000EFA04F438BF0023A14399400EFA03F3AF
:102C50009A4300F00F03043B1143634409010C3312
:102C600000F16042B0F1FF3FC8BF02F56443197044
:102C700010BD00004EF60C51CEF200010A684FF66E
:102C8000FF031A4060F30A2242F0806040F0FD70BA
:102C9000086070472DE9F04381B0002800F0838080
:102CA00042F20008C4F202080446D8F800000D46BB
:102CB00000F0070088420CD2D8F8000020F007008E
:102CC0002843C8F80000D8F8000000F00700A84228
:102CD00069D1206841F204098107C4F2020917D5BD
:102CE000410705D5D9F8001041F4E061C9F800109A
:102CF000010705D5D9F8001041F46051C9F800105A
:102D0000D9F80010A26821F0F0011143C9F80010B1
:102D1000C00741D1D8F8000000F00700A8420CD944
:102D2000D8F8000020F007002843C8F80000D8F8C1
:102D3000000000F00700A84235D12068410707D500
:102D4000D9F80010E26821F4E0611143C9F80010DD
:102D5000000708D5D9F80000216920F4605040EA46
:102D6000C100C9F80000D9F8002002F00C000828C2
:102D700041F20020C0F27A004BD145F62A33C2F36B
:102D80008341C0F60003595CD20336D440F60010EC
:102D9000C0F23D0048433CE06068012807D159F883
:102DA000041C89030CD4012001B0BDE8F08359F85C
:102DB000041C022802D18901F5D501E08907F2D56A
:102DC000D9F8001021F003010843C9F80000FFF70B
:102DD0001FFA064641F28837D9F80000616800F012
:102DE0000C00B0EB810F95D0FFF712FA801BB842B0
:102DF000F2D9032001B0BDE8F083D9F8002045F6F0
:102E00002833C2F34042C0F600039A5C4843B0FB4B
:102E1000F2F0D9F8001045F61032C1F30311C0F6F4
:102E20000002515C40F2080220FA01F140F2040075
:102E3000C2F200000068C2F200021160FFF798FEC3
:102E4000002001B0BDE8F08340F2080041F2040127
:102E5000C2F20000C4F202010068096845F620329F
:102E6000C1F30221C0F60002515CC8407047000067
:102E700040F2080041F20401C2F20000C4F2020173
:102E80000068096845F62032C1F3C221C0F600028D
:102E9000515CC840704700002DE9F04182B0002825
:102EA00067D00446007841F20006C007C4F202066B
:102EB00024D0706800F00C0004281AD0706800F06C
:102EC0000C00082802D17068C00312D46068002882
:102ED00000F04181B0F5803F07D03168B0F5A02FF8
:102EE00040F06E8141F480203060306840F48030E2
:102EF0006CE13068800301D56068D0B3207880072A
:102F000018D5706810F00C0F07D0706800F00C0036
:102F1000082856D17068C00353D43068800702D5A2
:102F20002069012825D13068616920F0F80040EA65
:102F3000C1003060207800071FD42078400731D4CA
:102F4000E56995B1706800F00C00082840F08B80AE
:102F5000012D0ED07068216A00F480328A4208D1B7
:102F6000616A00F47010884203D1002002B0BDE80D
:102F7000F081012002B0BDE8F081A069B8B3002063
:102F8000C4F242200121C0F88014FFF741F9054640
:102F9000706A800700F18A80FFF73AF9401B022827
:102FA000F6D920E1F069C00033D4F0694FF0010890
:102FB00040F08050F061F06900F08050009000987F
:102FC00029E02069002840F20000C4F2422000F00D
:102FD000978001210160FFF71BF9054630688007E3
:102FE000A1D4FFF715F9401B0228F7D9FBE0002018
:102FF000C4F242200021C0F88014FFF709F9054609
:10300000706A800799D5FFF703F9401B0228F7D9AA
:10301000E9E04FF0000847F20007C4F20007386803
:10302000C00510D4386840F480703860FFF7F0F8BD
:10303000054600BF3868C00505D4FFF7E9F8401B16
:103040006428F7D9CFE0E06800286BD0012806D0CB
:10305000316A052840F0968041F004003062306A01
:1030600040F0010094E00027C4F2422700203866B7
:10307000FFF7CEF8022D05460CD100BF3068800165
:1030800040F1B580FFF7C4F8401B02284FF0030061
:10309000F4D96BE7306880017FF567AFFFF7B8F8C8
:1030A000401B02284FF00300F4D95FE740F208000C
:1030B000C2F20000006844F6D351C1F26201A0FBE5
:1030C0000101480A019000BF00BF0198411E00287D
:1030D00001913FF432AF00BF0198411E00280191D9
:1030E0003FF42BAF00BF0198411E002801913FF42F
:1030F00024AF00BF0198411E00280191E4D11CE7D4
:1031000000210160FFF784F8054600BF30688007A2
:103110007FF510AFFFF77CF8401B02284FF003004B
:10312000F4D923E7306A20F001003062306A20F0E1
:1031300004003062FFF76CF8054641F2883700BFA3
:10314000306A800733D5FFF763F8401BB8424FF071
:103150000300F5D90AE7306820F480303060306829
:1031600020F480203060FFF753F805463068800374
:103170007FF5C4AEFFF74CF8401B64284FF0030006
:10318000F4D9F3E621F001003062306A20F0040047
:103190003062FFF73DF8054641F28837306A800714
:1031A00005D4FFF735F8401BB842F7D91BE0B8F15A
:1031B000000F3FF4C5AEF06920F08050F061BFE62B
:1031C00021F480303060306820F480203060FFF7D8
:1031D0001FF80546306880033FF590AEFFF718F8FA
:1031E000401B6428F6D9032002B0BDE8F081206AB4
:1031F000B0F5803F05D17168A26821F40031114318
:1032000071607168626A21F4741110430843706040
:1032100001203866FEF7FCFF044600BF30688001DD
:103220003FF5A3AEFEF7F4FF001B02284FF00300AA
:10323000F4D99BE6411E0020B0EB116F1CBF0120AA
:1032400070474EF21002CEF2000251604EF623514A
:10325000CEF20001F0230B700721906011607047DF
:10326000704700007047000010B590F83C20012A1C
:103270004FF0020235D0012380F83C3080F83D2029
:103280000268D2F804E0D2F808C00C682EF070038F
:10329000234340F2FF74C4F20004A242536009DCED
:1032A000B2F1804F12D040F20043C4F200039A42C0
:1032B0000CD010E042F60043C4F201039A4205D05C
:1032C00040F60003C4F200039A4204D149682CF08E
:1032D0008003194391600121002280F83D1080F89D
:1032E0003C20104610BD0000002804BF012070479C
:1032F00010B5044690F83D0028B9002084F83C0041
:10330000204600F06DF8022084F83D00206840F26D
:10331000FF730268C4F2000342F6004C9842C4F204
:10332000010C14DCB0F1804F19D040F20041C4F21E
:103330000001884213D0984217DCB0F1804F1CD0B6
:1033400040F20041C4F20001884216D019E0604505
:1033500005D040F60001C4F200018842EBD1A1681B
:1033600022F070020A439842E7DD604505D040F63E
:103370000001C4F20001884203D1216922F44072A5
:103380000A43A36922F08001D4F804E0E2681943FB
:1033900060450160C262C0F828E002D16169CCF8E2
:1033A0003010012141610269D20703D0026922F085
:1033B00001020261002084F8461084F83E1084F86F
:1033C0003F1084F8401084F8411084F8421084F8CB
:1033D000431084F8441084F8451084F83D1010BD63
:1033E00080B586B000210591CDE90311006840F257
:1033F0000042C4F20002904202911AD040F600014D
:10340000C4F2000188424DD042F60041C4F20101ED
:10341000884254D141F21800C4F20200016841F41C
:1034200000610160006800F400600190019806B03E
:1034300080BD41F21800C4F20200426842F002026C
:103440004260426802F002020192019A026842F070
:1034500008020260006800F0080001900198202036
:10346000CDE9020140F600400491C4F2010002A936
:10347000FEF7BAFD0420C4F2010001684FF2FF32EA
:10348000CFF6FF02114041F0E06141F400610160BC
:103490001D2000210022FFF7C1FB1D20FFF7AEFB1E
:1034A00006B080BD41F21800C4F20200416841F04C
:1034B00004014160406800F004000190019806B0EA
:1034C00080BD000090F83D1001291CBF012070470D
:1034D000022180F83D10006840F2FF71C4F2000143
:1034E000884209DCB0F1804F12D040F20041C4F2B2
:1034F000000188420CD012E042F60041C4F2010102
:10350000884205D040F60001C4F20001884206D18D
:10351000816801F00701062904BF00207047016897
:1035200041F00101016000207047000080B590F873
:103530003C20012A4FF0020200F0C280012380F8F3
:103540003C3080F83D20D0F800C04FF67772DCF8B0
:10355000083023EA0202CCF808200B684F2B28DC45
:103560001F2B43DD202B44D0302B42D0402B40F08A
:10357000A980D1F804E0C968DCF82030DCF820200C
:1035800022F00102CCF82020DCF8182022F0F00212
:1035900042EA011123F00A0242EA0E02CCF81810A6
:1035A000CCF82020DCF8081041F0470121F0300170
:1035B0007DE06F2B25DDB3F5005F46D0B3F5805F6E
:1035C00077D0702B7ED1D1E901E3C968DCF80820FF
:1035D00043EA0E0322F47F4243EA01211143CCF86F
:1035E0000810DCF8081041F0770160E00BB1102BF7
:1035F00068D1DCF8081021F07001194341F007018F
:1036000055E0502B34D0602B5CD1D1F804E0C96870
:10361000DCF82030DCF8202022F01002CCF820204A
:10362000DCF8182022F4704242EA013123F0A002B3
:1036300042EA0E12CCF81810CCF82020DCF8081062
:1036400041F0670121F0100131E0D1E901E3C968DF
:10365000DCF8082043EA0E0322F47F4243EA01210A
:103660001143CCF80810DCF8081041F480411EE04A
:10367000D1F804E0C968DCF82030DCF8202022F022
:103680000102CCF82020DCF8182022F0F00242EAF7
:10369000011123F00A0242EA0E02CCF81810CCF80D
:1036A0002020DCF8081041F0570121F02001CCF86F
:1036B00008100022012180F83D10002180F83C1004
:1036C000104680BD0122F5E7B0B540F2D811C2F234
:1036D0000001044600680968884218BFB0BD40F286
:1036E0007005C2F200052878012811D038BB2046A9
:1036F000042100F0B5FA2168E860086A20F0A00013
:103700000862086A40F0200008620120287016E074
:103710002046042100F0A4FA216828610A6A22F0F8
:10372000A0020A620A6A0A62E96800228842A0EBE3
:1037300001002A709CBF4FF6FF710844686140F297
:10374000D810C2F200000421BDE8B04000F03AB940
:10375000F0B590F83C30012B04BF0220F0BD4FEAD9
:10376000B2020123032A80F83C3000F2A480DFE893
:1037700002F0021F3F5D0368D1E900C5D1F80CE0FB
:103780001C6A1A6A40F2FF7722F001021A621A4696
:1037900052F8186FC4F20007BB426BDCB3F1804FE4
:1037A00074D040F20047C4F20007BB426ED087E0FD
:1037B0000368D1E900E6D1E902C11C6A1A6A36023F
:1037C00022F010021A621A4652F8185F4FF2FF07F1
:1037D000BE4325F4734561F30F3624F0A0040EF0C8
:1037E0000A0746EA050144EA071711601F623AE03A
:1037F0000768D1E900C5D1E902313C6A3A6A61F350
:10380000071522F480723A623A4652F81C6F26F08D
:10381000F30645EA0601CCF3560666F34924116027
:103820003C62116821F00C01116040E00368D1E9AD
:1038300000E6D1E902C11C6A1A6A360222F48052FB
:103840001A621A4652F81C5F4FF2FF07BE4325F476
:10385000734561F30F36CEF3520746EA050167F36D
:103860004D3411601C6211684FEA0C2321F4406151
:1038700011601CE042F60047C4F20107BB4205D0CC
:1038800040F60007C4F20007BB4219D126F0030638
:10389000354324F00A070CF00A066EF30715374487
:1038A0009D611F629F6927F00C079F618B681168FB
:1038B000194300231160002180F83C101846F0BD28
:1038C00046F00105E5E70000002804BF012070472D
:1038D00010B5044690F83D0028B9002084F83C005B
:1038E000204600F06DF8022084F83D00206840F288
:1038F000FF730268C4F2000342F6004C9842C4F21F
:10390000010C14DCB0F1804F19D040F20041C4F238
:103910000001884213D0984217DCB0F1804F1CD0D0
:1039200040F20041C4F20001884216D019E060451F
:1039300005D040F60001C4F200018842EBD1A16835
:1039400022F070020A439842E7DD604505D040F658
:103950000001C4F20001884203D1216922F44072BF
:103960000A43A36922F08001D4F804E0E268194315
:1039700060450160C262C0F828E002D16169CCF8FC
:103980003010012141610269D20703D0026922F09F
:1039900001020261002084F8461084F83E1084F889
:1039A0003F1084F8401084F8411084F8421084F8E5
:1039B000431084F8441084F8451084F83D1010BD7D
:1039C0007047000041B108290BD004290ED100F145
:1039D0003F0200F143030DE000F13E0200F142031B
:1039E00008E000F1400200F1440303E000F141026D
:1039F00000F1450312781B78012A4FF0010208BF3D
:103A0000012B01D010467047022271B1082917D04E
:103A1000042920D180F83F2080F843204FEAB103E9
:103A2000032B4FF00102EDD81FE080F83E2080F814
:103A300042204FEAB103032B4FF00102E2D814E019
:103A400080F8402080F844204FEAB103032B4FF068
:103A50000102D7D809E080F8412080F845204FEADC
:103A6000B103032B4FF00102CCD845F63C3C006873
:103A7000C0F6000C5CF823C0C36801F01F0143EAE4
:103A80000C03C360036A02FA01F123EA0102026235
:103A9000026A114340F2FF72C4F2000290420162D6
:103AA00009DCB0F1804F12D040F20041C4F20001B5
:103AB00088420CD018E042F60041C4F2010188426D
:103AC00005D040F60001C4F2000188420CD18168A3
:103AD00001F00701062904BF00207047016841F08A
:103AE00001010160002070470168002241F00101DE
:103AF0000160104670470000B0B504460068C16818
:103B0000026902EA0105A90720D4680738D428070A
:103B100052D4E8066BD4E80740F08780280600F10D
:103B20008E80680606D520686FF04001016120464E
:103B300000F0B0F8A80658BFB0BD21686FF02002B1
:103B400020460A61BDE8B040FFF78CBB6FF0020170
:103B50000161012121778069800707D02046FFF7A6
:103B6000B3FD002020776807D1D509E0204600F09A
:103B700071F8204600F070F8002020776807C6D55D
:103B800020686FF00401016102212177806910F43F
:103B9000407F07D02046FFF797FD002020772807B9
:103BA000B7D509E0204600F055F8204600F054F85B
:103BB000002020772807ACD520686FF0080101614C
:103BC00004212177C069800707D02046FFF77CFDDC
:103BD00000202077E8069ED509E0204600F03AF85C
:103BE000204600F039F800202077E80693D52068B9
:103BF0006FF01001016108212177C06910F4407F46
:103C000008D02046FFF760FD00202077E8073FF44A
:103C100085AF0AE0204600F01DF8204600F01CF8B1
:103C200000202077E8073FF479AF20686FF00101AA
:103C30000161204600F012F828067FF572AF206877
:103C40006FF0800101612046FFF70AFB68067FF5EF
:103C500071AF68E7704700007047000070470000D0
:103C60004FEAB101032984BF00207047DFE801F06B
:103C7000020E060A006834300068704700683C3065
:103C8000006870470068403000687047006838304E
:103C900000687047704700007047000070470000E0
:103CA000F0B581B0044600680168C268456901F05A
:103CB0002F03202B02F0200306D12BB1204601B0A8
:103CC000BDE8F04000F080BE5FEA017C07D005F05F
:103CD000010E12F4907F8EF001052FD175B3236B86
:103CE0001140CA0618D5012B16D100210091016898
:103CF00000914168009100994169490600F1848171
:103D0000A18DE28DE38D002B1CBF891A5FEA014271
:103D100040F0FD8001B0F0BD0A0600F12E82490698
:103D2000F8D5C16821F04001C1602021204684F807
:103D3000411001B0BDE8F04000F08ABBCE0718BFCB
:103D400012F4807603D0666C46F00106666401F0DA
:103D50000407012686EA97072F4303D1676C47F0D3
:103D60000207676401F0020786EA5706354303D16C
:103D7000656C45F00405656453EA0E0318BF012322
:103D8000BCF1000F04D51BB1636C43F008036364FE
:103D9000636C002BBED01140890603D5204600F08D
:103DA00013FE20684169626C01F0400102F00802D4
:103DB000891800F0F38100BF50E8030F216820F458
:103DC000907041E80302C2B3206850E8030F2168F5
:103DD00020F4907041E803027AB3206850E8030FA2
:103DE000216820F4907041E8030232B3206850E863
:103DF000030F216820F4907041E80302EAB12068C3
:103E0000DAE700BF206850E8050F216820F00100C4
:103E100041E80502DAB1206850E8050F216820F07A
:103E2000010041E8050292B1206850E8050F2168C1
:103E300020F0010041E805024AB1206850E8050F72
:103E4000216820F0010041E80502002ADAD1206B48
:103E5000012824D1206850E8030F216820F01000C9
:103E600041E80302DAB1206850E8030F216820F02E
:103E7000100041E8030292B1206850E8030F216866
:103E800020F0100041E803024AB1206850E8030F17
:103E9000216820F0100041E80302002ADAD1202036
:103EA00084F842000020206320684169490640F1FF
:103EB0008E8150E8050F216820F0400041E805029E
:103EC000002A00F07281206850E8050F216820F078
:103ED000400041E80502002A00F06781206850E8B0
:103EE000050F216820F0400041E80502002A00F09B
:103EF0005C81206850E8050F216820F0400041E80F
:103F00000502002A00F051812068D2E7206850E8BD
:103F1000030F226820F4907042E80303BBB32068CB
:103F200050E8030F226820F4907042E8030373B353
:103F3000206850E8030F226820F4907042E80303E1
:103F40002BB3206850E8030F226820F4907042E8F9
:103F50000303002BDAD11AE0206850E8050F22682D
:103F600020F0010042E80503DBB1206850E8050FAE
:103F7000226820F0010042E8050393B1206850E870
:103F8000050F226820F0010042E805034BB12068CC
:103F900050E8050F226820F0010042E80503002BDD
:103FA000DAD1202084F8420000202063206850E805
:103FB000030F226820F0100042E80303DBB1206801
:103FC00050E8030F226820F0100042E8030393B189
:103FD000206850E8030F226820F0100042E8030335
:103FE0004BB1206850E8030F226820F0100042E82F
:103FF0000303002BDAD1022289B22046626301B0AA
:10400000BDE8F040FFF748BEE26B11684B689EB216
:10401000002E3FF47FAEA18D8E42BFF47BAEE385D0
:104020009269202A00F09E8050E8030F216820F456
:10403000807041E80302E2B1206850E8030F216874
:1040400020F4807041E803029AB1206850E8030F21
:10405000216820F4807041E8030252B1206850E8E2
:10406000030F216820F4807041E803020AB1206840
:10407000DAE7206850E8050F216820F0010041E8E8
:104080000502BAB3206850E8050F216820F001004E
:1040900041E8050272B3206850E8050F216820F05E
:1040A000010041E805022AB3206850E8050F2168A5
:1040B00020F0010041E80502002ADAD11AE0206868
:1040C00050E8050F216820F0400041E80502DAB110
:1040D000206850E8050F216820F0400041E8050203
:1040E00092B1206850E8050F216820F0400041E8B7
:1040F00005024AB1206850E8050F216820F0400011
:1041000041E80502002ADAD1202084F8420000208C
:104110002063206850E8030F216820F0100041E878
:104120000302DAB1206850E8030F216820F0100084
:1041300041E8030292B1206850E8030F216820F0A3
:10414000100041E803024AB1206850E8030F2168DB
:1041500020F0100041E80302002ADAD1E06BFDF7FD
:10416000B3FEA18D02206063E08D081A81B2204663
:1041700001B0BDE8F040FFF78FBD94F84110212950
:104180007FF4C8ADA168B1F5805F01D1216921B389
:10419000216A4A1C22620978416025E02046FFF727
:1041A0007DFD0020606401B0F0BDE06B78B144F6A5
:1041B000BD11C0F600014163FDF7AAFE00283FF4DF
:1041C000A9ADE06B416B01B0BDE8F0400847204667
:1041D00001B0BDE8F040FFF761BD216A31F8022B64
:1041E0006FF35F2242602162E18C01390A04E184AD
:1041F0007FF490ADC16821F08001C160C16841F0D9
:104200004001C16001B0F0BD002804BF012070472B
:1042100010B5044690F8410028B9002084F8400009
:10422000204600F05FF8242084F841002068D4E99B
:104230000212C36823F40053C360036923F440539C
:104240001A430261D4E904231143C268194341F2BD
:104250000C639A431143C1604169A26921F4407122
:10426000114343F60002C4F201029042416102D0C0
:10427000FEF7EAFD01E0FEF7FBFD62681921484305
:104280009100B0FBF1F048F21F51C5F2EB11A0FB19
:1042900001235A096FF0630302FB0300322303EB8F
:1042A0000010A0FB0101F02303EA5113206803EB87
:1042B0000212C1F3431111448160016921F490415C
:1042C0000161416921F02A014161C16841F4005155
:1042D000C16000202021606484F8411084F84210FD
:1042E000606310BD70B586B0002640F600040596E8
:1042F000CDE90366C4F20104006804F54051884228
:10430000029601D006B070BD41F21800C4F202005E
:10431000016802AD41F480410160016801F480410F
:1043200001910199016841F004010160006829468A
:1043300000F00400019001984FF4007002900220F8
:104340000390032005902046FDF74EFE4FF4806059
:10435000CDE90206204629460496FDF745FE2520B4
:1043600000210022FEF75AFC2520FEF747FC06B08C
:1043700070BD000090F84230202B1CBF0220704717
:1043800000294FF0010318BF002A01D118467047D9
:1043900000230363816222218285C285436480F801
:1043A00042100169006819B1C16841F48071C160AF
:1043B0004169002341F001014161C16841F02001E0
:1043C000C160184670470000006843F60001C4F25F
:1043D0000101884218BF704740F2700CC2F2000C15
:1043E0009CF8021040F2EC00C2F200004218927FEA
:1043F0004B2A11BF4B1C0121ACF804100023D9B289
:10440000084400F11E0140F26820C2F200000122BF
:104410008CF80230FFF7AEBF034690F84100202829
:104420001CBF0220704700294FF0010018BF002A6E
:1044300000D170471962002021219A84DA845864DF
:1044400083F841101968CA6842F08002CA60704758
:1044500070470000FEE700002DE9F04782B00446F7
:1044600000680F4601680A9E41F48061016001689E
:104470000B9D9946904641F4807116F1010A016046
:1044800035D04169C90760D11EB910E04169C9073B
:1044900037D1FDF7BDFE411B2068B142F6D9416915
:1044A000C907F3D109E000BF4169C90729D1FDF768
:1044B000AFFE20684169C907F6D10021202221639F
:1044C00084F83D2084F83E10226C42F020022264E1
:1044D00084F83C100068C00544BF4FF400702064AD
:1044E000032002B0BDE8F0874169C90709D14169DD
:1044F000C90706D14169C90704BF41695FEAC171B3
:10450000F2D007F0FE07BAF1000F076119D0416938
:10451000890720D55BE000BF416949053FD4416967
:10452000890754D44169490539D4416989074ED472
:104530004169490533D44169890748D4416949052E
:104540002DD441698907E7D541E007F0FE070761EF
:10455000416989073BD4416901F480618EB1F1B9A9
:10456000FDF756FE411B2068B14203D94169890716
:1045700040F1DF804169890729D441694905EFD5B8
:104580000DE061B9FDF744FE20684169890740F1FB
:10459000D080416989071AD441694905F2D501687B
:1045A00041F4007101606FF48061416100202021BD
:1045B000206384F83D1084F83E00216C41F0040132
:1045C000216484F83C00012002B0BDE8F08700219E
:1045D000019141692A460191806931460190019813
:1045E000204600F06DF9B0B9B9F1010F09D020688B
:1045F0004FEA18210161204631462A4600F060F951
:1046000048B920685FFA88F10161204631462A46A0
:1046100000F056F958B1206C0428D4D12068016804
:1046200041F400710160012002B0BDE8F08720680C
:10463000BAF1000F016841F4807101601ED0416938
:10464000C90749D11EB90FE04169C90720D1FDF75B
:10465000DFFD411B2068B142F6D94169C907F3D19A
:104660002BE74169C90713D1FDF7D2FD20684169E5
:10467000C907F6D121E74169C90709D14169C907CD
:1046800006D14169C90704BF41695FEAC171F2D02F
:1046900047F00101BAF1000F016120D118E0416932
:1046A00049053FF57CAF416989074DD4416949050A
:1046B0003FF575AF4169890746D4416949053FF522
:1046C0006EAF416989073FD4416949053FF567AF3E
:1046D00041698907E3D537E047F00101016141698C
:1046E000890731D4416901F4806196B100297FF4D2
:1046F00056AFFDF78DFD411B2068B14202D94169DB
:10470000890716D5416989071ED441694905F0D545
:1047100045E700297FF443AFFDF77AFD2068416942
:10472000890706D5416989070ED441694905F3D542
:1047300035E700202021206384F83D1084F83E00F6
:10474000216C41F020013BE7002002B0BDE8F0877A
:1047500070B50368044653F8140F40072DD40E4675
:10476000481C24D05EBB00BF1868400549D4FDF743
:104770004FFD236853F8140F400733D518684007DE
:10478000F2D51AE0186840053BD41868400714D4E5
:104790001868400535D4186840070ED418684005DD
:1047A0002FD4186840074FF0000048BF70BD18684C
:1047B000400526D418684007E4D5002070BD154692
:1047C00004E000BF53F8140F4007F6D41868400502
:1047D00017D4FDF71DFD401B2368B042F2D958697C
:1047E0004007EFD400202021206384F83D1084F896
:1047F0003E00216C41F02001216484F83C0001203E
:1048000070BD6FF48060186000202021206384F860
:104810003D1084F83E00216C41F00401216484F8CD
:104820003C00012070BD000070B5044600681546CC
:1048300050F8143F5A0640D40E4629B92AE000BF6A
:1048400050F8141F490638D40168C90625D4FDF76D
:10485000DFFC411B2068B142F2D941694906EFD41F
:1048600000202021206384F83D1084F83E00216C54
:1048700041F02001216484F83C00012070BD00BF9C
:10488000FDF7C6FC206850F8141F4906E8D50168FA
:10489000490612D40168C906F2D56FF01001016013
:1048A00000202021206384F83D1084F83E00216C14
:1048B000216484F83C00012070BD002070BD000020
:1048C00070B50368044653F8140F00062DD40E4645
:1048D000481C24D05EBB00BF1868400549D4FDF7D2
:1048E00097FC236853F8140F000633D518680006A8
:1048F000F2D51AE0186840053BD41868000614D4B5
:104900001868400535D4186800060ED418684005AC
:104910002FD4186800064FF0000048BF70BD18681B
:10492000400526D418680006E4D5002070BD154661
:1049300004E000BF53F8140F0006F6D418684005D1
:1049400017D4FDF765FC401B2368B042F2D95869C3
:104950000006EFD400202021206384F83D1084F865
:104960003E00216C41F02001216484F83C000120CC
:1049700070BD6FF48060186000202021206384F8EF
:104980003D1084F83E00216C41F00401216484F85C
:104990003C00012070BD0000FEE70000FEE70000C3
:1049A0007047000070470000FEF7C0B87047000075
:1049B00040F2D810C2F20000FFF79EB8406A002112
:1049C000C185C184FFF76AB981B090F842102229ED
:1049D00020D18368B3F5805F08D10169002964D0D4
:1049E00000F128010A6803685B680AE0014651F893
:1049F000282F13B90369002BF5D003685B6803F017
:104A00007F0313700A6801320A60C18D01390A04FC
:104A1000C18501D001B070470168CA6822F0200248
:104A2000CA60CA6822F48072CA604A6922F0010230
:104A30004A61202280F8422000224263036B012B4E
:104A40003CD1026351E8031F026821F0100142E8E3
:104A500003130168DBB151E8031F026821F0100164
:104A600042E80313016893B151E8031F026821F083
:104A7000100142E8031301684BB151E8031F0268BB
:104A800021F0100142E803130168002BDAD10A6813
:104A9000D20606D5002200920A6800924968009169
:104AA0000099818D01B0FFF7F7B80168826A496803
:104AB0006FF35F2122F8021B8262A6E701B0FFF7C5
:104AC00083BC000040F26820C2F20000FFF7E8B8A3
:104AD000FEE7000096B0FEF737F8002401204FF4FF
:104AE0008031CDE90F44CDE90D440A90CDE90B1496
:104AF0000E9002254FF4E010CDE9115113900AA851
:104B00000894CDE90644CDE90444FEF7C5F920B187
:104B1000EFF3108072B600BFFEE70F20CDE9040569
:104B20004FF480600694CDE9070404A80221FEF743
:104B3000B1F820B1EFF3108072B600BFFEE741F28A
:104B40001800C4F20200016840F6004441F0200160
:104B500001600168C4F2010401F020010A910A9980
:104B60000168002241F0040101600168102501F094
:104B700004010A910A990168002641F008010160C8
:104B80000068102100F008000A900A982046FDF7FE
:104B900039FB01200A95CDE90B0602200AAD0D90E4
:104BA00020462946FDF720FA4FF44070CDE90A0669
:104BB000204629460C96FDF717FA40F23C10A4F562
:104BC0003841C2F2000048F2A0624FF48043C0F2C4
:104BD000010280E84600C0E90363C0E90566C0E958
:104BE0000766FDF71BFB20B1EFF3108072B600BF24
:104BF000FEE740F2682004F53051C2F200000C23B9
:104C00004FF4E13280E84600C0E90366C0E90536AA
:104C1000C661FFF7F9FA20B1EFF3108072B600BF5A
:104C2000FEE740F29010002104F50052C2F20000AD
:104C300047234FF6FF77CDE90C11CDE90A11CDE9F5
:104C40000411C0E90023C0E90217C0E90411816121
:104C5000FEF74AFB18B1EFF3108072B6FEE74FF48F
:104C600080500A9040F29010C2F200000AA9FEF7AC
:104C70005DFC20B1EFF3108072B600BFFEE740F29A
:104C800090100026C2F2000004A9CDE90466FEF7E8
:104C9000EBFA20B1EFF3108072B600BFFEE740F2EE
:104CA0002020A4F58231C2F200004FF6FF73CDE957
:104CB0000C66CDE90A66CDE90466472280E8460025
:104CC000C0E903368661FEF70FFB20B1EFF31080D9
:104CD00072B600BFFEE74FF480500A9040F22020E9
:104CE000C2F200000AA9FEF721FC20B1EFF3108008
:104CF00072B600BFFEE740F22029C2F2000900268A
:104D000004A94846CDE90466FEF7AEFA18B1EFF300
:104D1000108072B6FEE740F2D810A4F58431C2F2DA
:104D200000004FF6FF73CDE90C66CDE90A66CDE9C8
:104D30001466CDE90666CDE90466472280E84600A0
:104D4000C0E903368661FEF7CFFA18B1EFF31080A1
:104D500072B6FEE74FF480500A9040F2D810C2F2CB
:104D600000000AA9FEF7E2FB18B1EFF3108072B65B
:104D7000FEE740F2D810C2F20000FEF7A5FD18B120
:104D8000EFF3108072B6FEE740F2D8100026C2F2B0
:104D9000000014A9CDE91466FEF766FA18B1EFF326
:104DA000108072B6FEE701200496CDE9050640F2B8
:104DB000D810C2F2000004A904220796FEF7C8FC2E
:104DC00018B1EFF3108072B6FEE740F27006C2F23F
:104DD0000006B07840F2EC05C2F20005284400F16C
:104DE0001E0140F26820C2F200000122FFF7C2FA61
:104DF00040F2D810C2F200000421FEF7E3FD40F2B9
:104E0000901BC2F2000B5846FEF75CFB40F23C18C8
:104E1000022006F11807C2F2000800903846414609
:104E20004E221023CDF80490A946FCF745F806F170
:104E3000240041460390FDF743F805F11F0006F1F9
:104E4000400806F15E0A02902EE00FF27419C34684
:104E5000384600210022FCF72FFF38464946FCF770
:104E60009BFF384600210122FCF726FF38465946B1
:104E7000FCF792FF40F2901B40F2EC09C2F2000BEB
:104E8000C2F200095046FBF7AFFA82B240F2682046
:104E9000C2F200005146FFF7BFFA40F20C00C2F226
:104EA00000000088FDF78CF820464FF48071FDF774
:104EB000A3F9012801D1002007E020464FF400713A
:104EC000FDF79AF9012804D10120F0703846FBF76C
:104ED0004DFF204610210122FDF794F9DBF8000078
:104EE00000214162416A31B9416A21B9416A11B96F
:104EF000416A0029F6D0204610210022FDF782F9F0
:104F0000706900F0A8FC46F6007248F6C573C0F25E
:104F10008142C3F6A17300F0B1FC00230022C3F666
:104F2000E07300F0ABFC00F067FC7070B0600398B9
:104F3000FCF798FF307958B199F81E00542807D132
:104F40000298FBF744FA40F20C01C2F2000108801B
:104F5000B26840460EA1FBF763F9B26850460FA154
:104F6000FBF75EF996F8362096F8373096F8385009
:104F700048460FA10095FBF753F9F07800283FF45D
:104F800064AF01287FF47EAFCB460FF240095FE7A4
:104F90004B6320646F3A2564202000006B686F61CA
:104FA0006E6720636163683A25640D0A00000000A3
:104FB00054494D453A25643A25643A256420200039
:104FC00043484520444F203100000000434845201D
:104FD000444F2032000000005FEA400C08BF91F00F
:104FE000000F4FEA8C234FEAC12243EA51514FEAA6
:104FF0001C5018BF00F5F0404FEA300018BF41F0D8
:1050000000415FEA6C5C00F02980BCF1FF3F08BF03
:1050100040F080407047130C06BF12044FF0100C94
:105020004FF0000C130E04BF12020CF1080C130F0A
:1050300004BF12010CF1040C930F04BF92000CF199
:10504000020CD30F04BF52000CF1010C11464FF0BB
:105050000002A0F11F00A0EB0C00704711F0004F00
:1050600008BF704731F000413FF4D5AF0B0C06BFCD
:1050700009044FF0100C4FF0000C0B0E04BF090296
:105080000CF1080C0B0F04BF09010CF1040C8B0F81
:1050900004BF89000CF1020CCB0F04BF49000CF1D6
:1050A000010CCCF1200322FA03F341EA030102FAD6
:1050B0000CF2A0EB0C0000F10100704723F07F47D9
:1050C00020F07F4C80EA030000F00040ACEB0703C7
:1050D00003F57C5303F1FF032DE9804909B44FEA3E
:1050E000144324EA03484FEA154B25EA0B4E0FF20E
:1050F000042606EB13273E7803FB0667C7F5000777
:1051000007FB06F64FEAD64606F102064FEA543789
:1051100007FB066CCCF1005C4FEA1C472CEA074CFD
:105120000CFB06F507FB06F404EB15464FEA961652
:1051300049085FEA320234BF00204FF000404FEAD6
:10514000D13706FB07FC4FEA1C4C0CFB0BF7D21BBC
:1051500003FB0CF761EB07010CFB0EF7B0EB07400C
:1051600072EB17420CFB08F734BFA2EB0742B2EB1D
:10517000074261EB17414FEA0C444FEA910706FBE7
:1051800007FC4FEA1C4C0CFB0BF7B0EBC74072EB73
:10519000573203FB0CF734BFA2EBC742B2EBC74256
:1051A00061EB57310CFB0EF7B0EBC70072EB577297
:1051B0000CFB08F734BFA2EBC702B2EBC70261EBEE
:1051C00057714FEA816141EA92114FEA826242EAE5
:1051D00090124FEA806004EBCC04039F4FEAD13772
:1051E00006FB07FC4FEA1C4C0CFB0BF7D21B03FB26
:1051F0000CF761EB07010CFB0EF7B0EB074072EB0D
:1052000017420CFB08F734BFA2EB0742B2EB074290
:1052100061EB17414FEA8C5504EB9C244FEA910750
:1052200006FB07FC4FEA1C4C0CFB0BF7B0EBC7402E
:1052300072EB573203FB0CF734BFA2EBC742B2EB61
:10524000C74261EB57310CFB0EF7B0EBC70072EBB6
:1052500057720CFB08F734BFA2EBC702B2EBC702D0
:1052600061EB57714FEA816141EA92114FEA826224
:1052700042EA90124FEA806015EB4C2544F100049D
:105280004FEAD13706FB07FC4FEA1C4C0CFB0BF72F
:10529000D21B03FB0CF761EB07010CFB0EF7B0EB25
:1052A000074072EB17420CFB08F734BFA2EB074232
:1052B000B2EB074261EB17414FEA813141EA92417B
:1052C0004FEA823242EA90424FEA80304FEA0C764F
:1052D00015EB1C1544F1000448EA03434EEA0B4861
:1052E0004FF0000EB2EB080C71EB030724BF6246CF
:1052F00039464EEB0E0E4FF0000B0018524149415B
:105300004BEB0B0BB2EB080C71EB03077BF1000BC3
:1053100024BF624639464EEB0E0E4FF0000B0018CC
:10532000524149414BEB0B0BB2EB080C71EB0307FD
:105330007BF1000B24BF624639464EEB0E0E51EA5C
:10534000020718BF46F0010616EB0E7655F1000273
:1053500054F1000103D5BDE88901BDE80088BDE82E
:105360008901BDE80048B619524141EB0101A3F1A2
:105370000103704780807F7E7D7C7B7A79787776A9
:1053800076757473727171706F6E6E6D6C6C6B6A22
:105390006A696868676666656464636362616160C0
:1053A000605F5F5E5E5D5D5C5C5B5B5A5A5959583D
:1053B00058575756565555555454535352525251A7
:1053C000515050504F4F4F4E4E4D4D4D4C4C4C4BFD
:1053D0004B4B4A4A4A494949484848474747474644
:1053E0004646454545444444444343434342424280
:1053F000424141419C46002B30D477002BD04FEAEC
:1054000037071CB503B44FF010004FF01001BAF18C
:10541000000F06D0BCF1000FDCBF40F0080040F0E8
:1054200008014FF000000FBCBDE810400BF1010B6C
:10543000BBF1010F08BF5FEA170722BF12F101029B
:1054400011F101014FF0004143F1000300F0004071
:1054500043EA00007047F9D35708D0E746EA06460A
:105460004FEA164613F1400F1FDD13F1200FDFBF87
:1054700016430A46002120335B42BED0C3F1200709
:1054800046EA06464FEA164602FA07F746EA0706D4
:1054900022FA03F2C3F1200701FA07F742EA0702F2
:1054A00021FA03F14FF00003A7E746EA020646EAB5
:1054B00006464FEA164646EA0106BCBF46EA0646DD
:1054C000360C4FF000034FF000024FF0000194E75C
:1054D0002DE9804C70B49A46934691E8380007C88D
:1054E00031EA400C48BF34EA430C03D5FFF7E6FD30
:1054F000FFF780FFF0BCBDE8008C2DE9804C70B454
:105500009A46934691E8380007C810F0804F08BFCC
:1055100013F0804F03D100F005F8FFF76BFFF0BCEC
:10552000BDE8008C20F07F4723F07F4C80EA030029
:1055300000F0004007EB0C03A3F57C53A3F1FE033E
:1055400092F0000F00F0B38095F0000F00F077802C
:105550002DE901494FEA114021EA00484FEA14467B
:1055600024EA064700FB06FC08FB06F607FB08F8E2
:1055700018EB06484CEB164C00FB07F718EB0748F6
:105580004CEB17404FEA124B22EA0B4E4FEA1546FE
:1055900025EA06470BFB06FC0EFB06F607FB0EFE94
:1055A0001EEB064E4CEB164C0BFB07F71EEB074EA3
:1055B0004CEB174B18EB0B0840F1000018EB0E0BEF
:1055C00058EB000840F100008F1A4FF000014FF037
:1055D00000063CBFC943661B14BFB5EB040C002199
:1055E0003CBFC943F61B4FEA174427EA04454FEA7C
:1055F0001C472CEA074C04FB076205FB07F70CFB72
:1056000005F616EB074642EB174204FB0CFC16EBC3
:105610000C4642EB1C421BEB060658EB02024141D2
:105620004EEA8E0E46EA9E0601D5BDE80189B619FE
:10563000524141EB0101A3F10103BDE801894FEAA9
:10564000144524EA05464FEA114721EA074C05FBB9
:1056500007F406FB07F70CFB06F111EB074144EBDF
:10566000174405FB0CFC11EB0C4144EB1C444FEAC6
:10567000124722EA074C05FB07F206FB07F70CFB73
:1056800006F616EB074642EB174205FB0CFC16EB41
:105690000C4642EB1C456A1854F1000148BF7047A4
:1056A000B619524141EB0101A3F10103704795F096
:1056B000000F37D04FEA114221EA02464FEA144761
:1056C00024EA074C02FB07F106FB07F70CFB06F484
:1056D00014EB074441EB174102FB0CFC14EB0C44A8
:1056E00041EB1C414FEA154725EA074C02FB07F541
:1056F00006FB07F70CFB06F616EB074645EB1745CE
:1057000002FB0CFC16EB0C4645EB1C42121951F146
:10571000000148BF7047B619524141EB0101A3F1A6
:10572000010370474FEA144524EA05464FEA114742
:1057300021EA074C05FB07F106FB07F70CFB06F215
:1057400012EB074241EB174105FB0CFC12EB0C423C
:1057500051EB1C414FF0000648BF7047921841EBD7
:105760000101A3F101037047490050EAC12018BFAD
:1057700004204A0D18BF40F0010040F2FF72B2EB66
:10578000515F08BF40F00200012808BF05207047A4
:1057900030380A2801D201207047002070470000ED
:1057A00010B500290AD00878002807D005487844A9
:1057B000FBF792FA002801D0002010BD024878447F
:1057C00010BD0000CE030000C603000010B5002984
:1057D0000AD00878002807D005487844FBF77CFAFF
:1057E000002801D0002010BD0248784410BD000000
:1057F000BE030000B60300004FEA41034FEA5353D3
:10580000A3F58063D3F11E03C8BFD3F1210C0CDDD7
:105810004FF0004242EAC12242EA505232FA03FCFF
:105820008CEAE17CACEBE1707047102BC4BF002028
:10583000704703F5787CBCF1FF3F04D06FF0004265
:1058400082EA2100704770B500F0C2F849922480C6
:1058500000207047F2E7B0FA80F310FA03F10AD0A3
:10586000C3F11D0303F580634FEA03524FEA415031
:1058700002EBD12170474FF00000704770B5DFF8A0
:1058800048C11CEA111E1EBF1CEA13159EEA0C0F2C
:1058900095EA0C0F00F06F8081EA03044EEAD47E93
:1058A000AE4421EA4C1123EA4C1341F4801143F435
:1058B0008013AEF17F7EA1FB024CA0FB036536197D
:1058C00055EB0C05A1FB034C4CF10003A0FB021CA3
:1058D00016EB0C06654153F10003094218BF46F070
:1058E000010613F4007F0BD14FEA03314FEA053074
:1058F00041EA155140EA165034036FF003020AE002
:105900004FEAC3214FEAC52041EA555140EA5650BB
:10591000F4026FF0020202EB2E4201EB025585EA1F
:10592000CE710AD05FEA440C18BF24F0004450F155
:10593000000041F1000120EAD47040F2FE7C624593
:1059400000D270BDA84214BF4FF080444FF04044D5
:10595000002E08BF0024BEF1806FA8BFA1F1C04196
:10596000BDE8704080F2828001F1C04101F0004149
:105970004FF0000070470CEA13159EEA0C0F18BF99
:1059800095EA0C0F06D081EA030E4FF000000EF0EE
:10599000004170BD00F01CF88900013E00F007B81E
:1059A00000F009B84FEA430C5FEA5C5C08D081EA7A
:1059B000030100F05BB84FEA410C5FEA5C5CF6D192
:1059C00002494FF0000070470000FF070000F87F19
:1059D0000EF1020E2EF0030E5EF8046B364205D473
:1059E000012A43EB030515F5001F12D8012841EBEE
:1059F000010C1CF5001F0CD80ED14FEAD17C0CEB2A
:105A00004C0C0CF1020C15F5001F08BF4CEBD37CBD
:105A100004E04FF0080C01E04FEAD37C0CEB4C059E
:105A200026FA05F606F00706B6F1040C06D20EEBD0
:105A3000860CBDE870404CF0010C6047DFE80CF0CC
:105A4000090B02024FF00041A1F500214FF00000C8
:105A500070BD19461046012851EB010418BFD4F55A
:105A6000001484BF002001F0004170BD0808A0F5BB
:105A700000114FEA31017047FAF70DBE02400000F5
:105A8000000000A00000000005400000000000C869
:105A9000000000000C4000000000409C00000000DE
:105AA000194000000020BCBE00000000344000008F
:105AB000BFC91B8E00000004B5400000504BCFD082
:105AC0006607E2CF010000006C4100003E8251AA4F
:105AD000DFEEA73401000000D9420000DCB5A0E2EF
